:020000040800F2
:1000000000000220CD8E0008F1580008F5580008C5
:10001000F9580008FD5800080159000800000000C8
:10002000000000000000000000000000055900086A
:1000300009590008000000000D590008F559000892
:100040001D8F00081D8F00081D8F00081D8F0008E0
:100050001D8F00081D8F00081D8F00081D8F0008D0
:100060001D8F00081D8F00081D8F00081D8F0008C0
:10007000D11600081D8F00081D8F00081D8F000875
:100080001D8F00081D8F00081D8F00080000000054
:100090000000000000000000000000001D8F0008AC
:1000A0001D8F00081D8F00081D8F00081D8F000880
:1000B0001D8F00081D8F00081D8F00081D8F000870
:1000C0001D8F00081D8F00081D8F00081D8F000860
:1000D0001D8F00081D8F00081D8F00080000000004
:1000E0001D8F00081D8F00081D8F000800000000F4
:1000F0000000000000000000000000001D8F00084C
:10010000000000001D8F00081D8F00081D8F0008D3
:1001100000000000000000000000000000000000DF
:100120001D8F00081D8F00081D8F0008ED2D000891
:100130001D8F00080000000000000000000000000B
:10014000000000000000000000000000F959000855
:100150001D8F00081D8F00081D8F00081D8F0008CF
:100160001D8F00081D8F0008000000000000000027
:10017000000000000000000000000000000000007F
:10018000000000001D8F00080000000000000000BB
:080190001D8F00081D8F0008FF
:1001A000034613F8012B002AFBD1181A01387047B7
:1001B00001F0FF01102A2BDB10F0070F08D010F818
:1001C000013B013A8B422DD010F0070F42B3F6D11C
:1001D000F0B441EA012141EA014122F007047FF035
:1001E00000070023F0E80256083C85EA010586EA8C
:1001F000010685FA47F5A3FA87F586FA47F6A5FAC8
:1002000087F68EB9EED1F0BC01F0FF0102F00702D3
:1002100032B110F8013B013A83EA010313B1F8D17E
:100220000020704701387047002D06BF354603385F
:10023000073815F0010F07D1013015F4807F02BF98
:10024000013015F4C03F0130F0BC0138704700BFE9
:1002500070B54FF0FF0C4CF4E06C1CEA11541DBF5C
:100260001CEA135594EA0C0F95EA0C0F00F0DEF827
:100270002C4481EA030621EA4C5123EA4C5350EA0C
:10028000013518BF52EA033541F4801143F480135D
:1002900038D0A0FB02CE4FF00005E1FB02E506F0EE
:1002A0000042E0FB03E54FF00006E1FB03569CF043
:1002B000000F18BF4EF0010EA4F1FF04B6F5007F49
:1002C00064F5407404D25FEA4E0E6D4146EB0606BB
:1002D00042EAC62141EA55514FEAC52040EA5E5044
:1002E0004FEACE2EB4F1FD0C88BFBCF5E06F1ED8EE
:1002F000BEF1004F08BF5FEA500E50F1000041EB25
:10030000045170BD06F0004646EA010140EA0200D1
:1003100081EA0301B4EB5C04C2BFD4EB0C0541EAF3
:10032000045170BD41F480114FF0000E013C00F308
:10033000AB8014F1360FDEBF002001F0004170BD2C
:10034000C4F10004203C35DA0C341BDC04F1140445
:10035000C4F1200500FA05F320FA04F001FA05F2D1
:1003600040EA020001F0004221F0004110EBD3709E
:1003700021FA04F642EB06015EEA430E08BF20EACA
:10038000D37070BDC4F10C04C4F1200500FA04F36D
:1003900020FA05F001FA04F240EA020001F00041FF
:1003A00010EBD37041F100015EEA430E08BF20EA72
:1003B000D37070BDC4F1200500FA05F24EEA020EBA
:1003C00020FA04F301FA05F243EA020321FA04F0E9
:1003D00001F0004121FA04F220EA020000EBD370A0
:1003E0005EEA430E08BF20EAD37070BD94F0000FA0
:1003F0000FD101F00046400041EB010111F4801FD4
:1004000008BF013CF7D041EA060195F0000F18BF84
:10041000704703F00046520043EB030313F4801FC0
:1004200008BF013DF7D043EA0603704794EA0C0F7A
:100430000CEA135518BF95EA0C0F0CD050EA410690
:1004400018BF52EA4306D1D181EA030101F000410D
:100450004FF0000070BD50EA410606BF1046194635
:1004600052EA430619D094EA0C0F02D150EA013641
:1004700013D195EA0C0F05D152EA03361CBF104682
:1004800019460AD181EA030101F0004141F0FE4121
:1004900041F470014FF0000070BD41F0FE4141F4A5
:1004A000780170BD81F0004102E000BF83F000439D
:1004B00030B54FEA41044FEA430594EA050F08BFFF
:1004C00090EA020F1FBF54EA000C55EA020C7FEAC3
:1004D000645C7FEA655C00F0E2804FEA5454D4EB40
:1004E0005555B8BF6D420CDD2C4480EA020281EA0A
:1004F000030382EA000083EA010180EA020281EA42
:100500000303362D88BF30BD11F0004F4FEA013193
:100510004FF4801C4CEA113102D0404261EB4101A2
:1005200013F0004F4FEA03334CEA133302D0524228
:1005300063EB430394EA050F00F0A780A4F10104E4
:10054000D5F1200E0DDB02FA0EFC22FA05F280181E
:1005500041F1000103FA0EF2801843FA05F3594104
:100560000EE0A5F120050EF1200E012A03FA0EFC83
:1005700028BF4CF0020C43FA05F3C01851EBE371AD
:1005800001F0004507D54FF0000EDCF1000C7EEBCA
:1005900000006EEB0101B1F5801F1BD3B1F5001F08
:1005A0000CD349085FEA30004FEA3C0C04F1010427
:1005B0004FEA445212F5800F80F09A80BCF1004F50
:1005C00008BF5FEA500C50F1000041EB045141EAD2
:1005D000050130BD5FEA4C0C404141EB0101013C9B
:1005E00028BFB1F5801FE9D291F0000F04BF01468A
:1005F0000020B1FA81F308BF2033A3F10B03B3F15C
:1006000020020CDA0C3208DD02F1140CC2F10C02EB
:1006100001FA0CF021FA02F10CE002F11402D8BF49
:10062000C2F1200C01FA02F120FA0CFCDCBF41EA15
:100630000C019040E41AA2BF01EB0451294330BDE4
:100640006FEA04041F3C1CDA0C340EDC04F11404C1
:10065000C4F1200220FA04F001FA02F340EA030098
:1006600021FA04F345EA030130BDC4F10C04C4F1DE
:10067000200220FA02F001FA04F340EA03002946BE
:1006800030BD21FA04F0294630BD94F0000F83F408
:10069000801306BF81F480110134013D4EE77FEAEB
:1006A000645C18BF7FEA655C29D094EA050F08BF37
:1006B00090EA020F05D054EA000C04BF1946104618
:1006C00030BD91EA030F1EBF0021002030BD5FEA5C
:1006D000545C05D14000494128BF41F0004130BD84
:1006E00014F580043CBF01F5801130BD01F00045D8
:1006F00045F0FE4141F470014FF0000030BD7FEA4B
:10070000645C1ABF194610467FEA655C1CBF0B4645
:10071000024650EA013406BF52EA033591EA030F5C
:1007200041F4002130BD00BF90F0000F04BF002154
:10073000704730B54FF4806404F132044FF0000587
:100740004FF0000150E700BF90F0000F04BF002100
:10075000704730B54FF4806404F1320410F0004566
:1007600048BF40424FF000013EE700BF42004FEA61
:10077000E2014FEA31014FEA02701FBF12F07F43DE
:1007800093F07F4F81F06051704732F07F4208BF95
:10079000704793F07F4F04BF41F40021704730B59C
:1007A0004FF4607401F0004521F000411CE700BFE8
:1007B00050EA010208BF704730B54FF000050AE06B
:1007C00050EA010208BF704730B511F0004502D56C
:1007D000404261EB41014FF4806404F132045FEA6E
:1007E000915C3FF4D8AE4FF003025FEADC0C18BF17
:1007F00003325FEADC0C18BF033202EBDC02C2F109
:10080000200300FA03FC20FA02F001FA03FE40EA9A
:100810000E0021FA02F11444BDE600BF4A0011D2D5
:1008200012F5001211D20DD56FF47873B3EB62524A
:100830000ED44FEAC12343F0004343EA505323FA56
:1008400002F070474FF00000704750EA013002D1CB
:100850004FF0FF3070474FF0000070474FEA410201
:10086000B2F1E04324BFB3F5001CDCF1FE5C0DD90E
:1008700001F0004C4FEAC0024CEA5070B2F1004F58
:1008800040EB830008BF20F00100704711F0804F5B
:1008900021D113F13872BCBF01F00040704741F420
:1008A00080114FEA5252C2F11802C2F1200C10FA24
:1008B0000CF320FA02F018BF40F001004FEAC12308
:1008C0004FEAD32303FA0CFC40EA0C0023FA02F3AC
:1008D0004FEA4303CCE77FEA625307D150EA013382
:1008E0001EBF4FF0FE4040F44000704701F0004052
:1008F00040F0FE4040F40000704700BF10B5054CCA
:10090000237833B9044B13B10448AFF300800123BB
:10091000237010BD7C01002000000000989F00089B
:1009200008B5034B1BB103490348AFF3008008BD72
:100930000000000080010020989F000808B507F023
:100940001BFD04F0E5FF0F490F4A0B6B43F08503D5
:100950000B63136823F0406343F0806313605369B3
:1009600043F40053536105F073F800F035FA00F0DA
:1009700067FD04F025FE00F0C9FE00F043FA04F024
:1009800093FFF8E7003802400008024010B5044623
:10099000007800F0F003902B13D0B02B02D0802B06
:1009A00026D010BDA278617800F00F0001F0C8FEDB
:1009B0002078A278617800F00F00BDE8104000F0C8
:1009C00057BBA27800F00F000AB3092804D11849D8
:1009D0004B6923F400534B61617800F03DFF2078B0
:1009E000A278617800F00F00BDE8104000F0BCBABA
:1009F00000F00F00092815D0617801F0BFF82078C9
:100A0000617800F00F00BDE8104000F0E5BA092859
:100A1000F2D102F1804202F50232536943F40053ED
:100A20005361E9E7024A536943F400535361E3E732
:100A3000000802402DE9F04FB0F8012044F652546E
:100A40004B1EA24289B09BB200F0C280032B40F241
:100A5000C18044F654039A4240F0BC80053900221C
:100A60008BB2CDE90422CDE9062290F8039090F8EC
:100A700004800193002B00F09A80CDE902980627AC
:100A80000526042503244FF0020E4FF0010C1146F9
:100A900084E04FEAD2090DF1100802F0070B18F8B4
:100AA00009A003F0010808FA0BF848EA0A080DF15A
:100AB000100A0CF0070B0AF809804FEADC09C3F3AF
:100AC00040081AF809A008FA0BF848EA0A080DF1DC
:100AD000100A0EF0070B0AF809804FEADE09C3F38B
:100AE00080081AF809A008FA0BF848EA0A080DF17C
:100AF000100A04F0070B0AF809804FEAD409C3F37F
:100B0000C0081AF809A008FA0BF848EA0A080DF11B
:100B1000100A05F0070B0AF809804FEAD509C3F35C
:100B200000181AF809A008FA0BF848EA0A080DF1AB
:100B3000100A06F0070B0AF809804FEAD609C3F33A
:100B400040181AF809A008FA0BF848EA0A080DF14B
:100B5000100AC3F380130AF809804FEAD70807F098
:100B6000070903FA09F31AF8089043EA09030AF897
:100B70000830019B07320CF1070C0EF1070E073409
:100B8000073507360737994292B21FFA8CFC1FFAD5
:100B90008EFEA4B2ADB2B6B2BFB206D043180131D8
:100BA0005B79F72BC9B27FF474AFDDE902984FEAA5
:100BB0005900092809F0010118D0B8F1050F0CD827
:100BC0009DED040A424609B0BDE8F04F01F008B9B6
:100BD000032B16D009B0BDE8F08FB8F1060FF9D19C
:100BE000DDED047A4246B8EEE70AECE7B8F1000F13
:100BF000F0D19DED040A404609B0BDE8F04F01F088
:100C000097BD09B0BDE8F04F04F030BE1B481C4949
:100C1000026B1C4B42F4800242F0020210B40263E9
:100C2000426C42F4801242640A6822F4403242F478
:100C300000320A604A6A22F00F024CF2243442F079
:100C400006024A621C601A680F49104C08888978AD
:100C500042F040021A605A6842F002025A6023468B
:100C600004F5A2721880997003339342FAD10023DD
:100C7000A4F844315DF8044B704700BF00380240CF
:100C80000004024000500140B09F0008980100207D
:100C900010B5C0F3072CC2B2C0F307430CEB4C0CE9
:100CA0001248134C01EBC1010CEB000E30F80CC0E4
:100CB00024F801C021449EF802C081F802C002EB72
:100CC000420202EB000C825AA1F803209CF8022099
:100CD0004A7103EB43031A18C05A92780A7282B021
:100CE0000023C880A4F8443102B010BD04A000085D
:100CF000980100200D4B0E4A0E494FF4006010B4CD
:100D0000D8600D4CC3F888404FF4A370C3F88C0032
:100D1000C3F89410C3F89020D3F888205DF8044BF2
:100D200042F00102C3F88820704700BF006402400F
:100D30000C500140980100204004020A38B50446D6
:100D400048680D46FFF7F0FC1F4B0022FFF780FAC2
:100D5000FFF764FD812898BF1C4B1D4ADFED1D6A1B
:100D600094ED005AD4ED015A94ED027A9CBF03EB46
:100D7000800393ED006A2B7803EB430388BFB7EE43
:100D8000006AD15C07EE901AF8EEE77A134467EE3A
:100D9000867AA7EEA65A84ED005A5A7807EE902A72
:100DA000F8EEE77A67EE867AE7EEA65AC4ED015AC6
:100DB0009B7807EE903AF8EEE77A67EE867AA7EE30
:100DC000A67A84ED027A38BD0000124058A30008CC
:100DD00028A300088180803B08B5FFF717FF074B69
:100DE000074803F5A261FF225A705A725A745A7664
:100DF000186224338B42F7D108BD00BFE402002003
:100E00003D0D00082DE9F04F2DED048BDFF850B1BA
:100E100087B007F0D7FADBF800300190C31A142B23
:100E200004D807B0BDEC048BBDE8F08F494CDFF867
:100E300034819FED499ADFED498AA4F12006B7EE8F
:100E4000008A04F5A269356ACDED038ACDED048AE6
:100E5000CDED058AB246FF279AF80120FF2A5146B8
:100E600003A80AD0A8479AF802200AB98AF80170A4
:100E7000DAF804200132CAF804200AF1080A5445BD
:100E8000EAD19DED037ADDED047ADDED056AB5EE7C
:100E9000006A27EE067A67EE867AB4EEC87AF1EE3B
:100EA00010FA66EE866A4BDDC822B7EE007AF4EEE1
:100EB000C87AF1EE10FA8DED037A38DDC823F7EE2B
:100EC000007AF4EEC86AF1EE10FACDED047A1CDD7A
:100ED000C8218DF80A108DF808208DF8093018F80F
:100EE000011F02988DED058A2434FFF7D1FE4C4591
:100EF00006F12406A7D1FFF7FDFE019BCBF80030D9
:100F000007B0BDEC048BBDE8F08F66EE897A8DF8F2
:100F10000820FCEEE77A8DF8093017EE902A8DF85C
:100F20000A2018F8011F0298CDED056ADCE727EECC
:100F3000897ABCEEC77A8DED007A9DF80030C0E763
:100F400027EE096ABCEEC66A8DED006A9DF80020A6
:100F5000ADE700BF0403002000004843000000008C
:100F6000E002002003A30008092826D0B1F13C03C9
:100F700010B404D5B1F1180348BF01F10C03144CAF
:100F8000A4FB034C4FEADC0C0CEBCC0C114CA3EB98
:100F90008C0303EBC30304EB83035C78FF2C07D1C2
:100FA00000245C60597018709A705DF8044B7047AB
:100FB0005C7AFF2C02D10833F2E770475C7CFF2C8F
:100FC00001D11033ECE75C7EFF2CEED11833E7E75C
:100FD000398EE338E4020020092843D0B1F13C0304
:100FE00010B404D5B1F1180348BF01F10C031E4A37
:100FF000A2FB0342D20802EBC202A3EB82031B4C0A
:1010000003EBC30304EB83029B0092F801C0BCF125
:10101000FF0F06D0E35C834203D1614504BF002388
:101020009370537AFF2B06D0147A844203D19942ED
:1010300004BF00239372537CFF2B06D0147C8442A0
:1010400003D1994204BF00239374537EFF2B06D033
:10105000147E844203D18B4204BF002393765DF853
:10106000044B7047704700BF398EE338E40200201C
:10107000782902D07B2900D07047124B002103F55C
:10108000A26C5A78FF2A03D01A78824208BF99705E
:101090005A7AFF2A03D01A7A824208BF99725A7C80
:1010A000FF2A03D01A7C824208BF99745A7EFF2A15
:1010B00003D01A7E824208BF997624339C45E0D142
:1010C000704700BFE40200202DE9F04FD24BDFF85B
:1010D00064E31B78D14ADEF80CA0DEF828B0DEF815
:1010E0005C00DFEDCF5ADFEDCF4A9FEDCF4ADFF84E
:1010F00048C3DFF84893DEED066A9EED0D6A9EED6B
:10110000145ADEED1B3ADEF81010DEF82C40DEF843
:1011100048508FB000270C939B020D93043B02EBC9
:101120000308DEF814300493DEF808300593DEF887
:1011300030300693DEF824300793DEF84430019314
:10114000DEF84C300893DEF840300993DEF860306A
:101150000A93DEF868300B93DEF86460CDE902ABE9
:1011600082469FEDB27AB24BBB463746186D1A6A7B
:101170005E6A93ED023AD3ED0B2A00FB02F2C2F352
:101180004B4206EB8206D6ED007A5A6C67EE837A04
:1011900000FB02F267EEA57A5833FDEEE77A17EE10
:1011A000906A06EB524653F8102CC6F30B0602EB7E
:1011B0008602D2ED007A53F8042C024443F8082C3E
:1011C0009C45A7EEA27AD1D1029AB2EB112F3E46EE
:1011D0004FEA11235F460ED3049A1144059ACEF8C4
:1011E0001010D35C7F3B07EE903AF8EEE77A67EE9B
:1011F000A47AA7EEA67A039AB2EB142F4FEA14232F
:101200000ED3069A1444079ACEF82C40D35C7F3B49
:1012100007EE903AF8EEE77A67EEA47AA7EE867AC0
:10122000019AB2EB152F4FEA15230ED3089A1544F5
:10123000099ACEF84850D35C7F3B07EE903AF8EE1F
:10124000E77A67EEA47AA7EE857A0A9AB2EB162FB0
:101250004FEA162328D30B9A1644CEF864601AF886
:1012600003307F3B07EE903AF8EEE77A013767EEFE
:10127000A47AB7F5807FA7EEA37A27EE047AFDEE75
:10128000C77A17EE903A03F5405339F8133048F80F
:10129000043F7FF466AF0C9B5F4AB3FA83F35B09AC
:1012A00013700FB0BDE8F08FDFED5F4A27EE247AB0
:1012B000FF2FBDEEC77ADDE902AB17EE103A03F55A
:1012C000405307F1010239F81330C8F80430E2D076
:1012D0000C9BDFED535A9FED534A02EB032000F1C4
:1012E00080404E4B0D9A013803EB800003F57F736D
:1012F0001A4490462F0A56469FED4C7A4C4B02906A
:10130000B246186D1A6A5E6AD3ED023A93ED0B3A53
:1013100000FB02F2C2F34B4206EB8206D6ED007AE6
:101320005A6C67EEA37A00FB02F267EEA57A583397
:10133000FDEEE77A17EE906A06EB524653F8102C52
:10134000C6F30B0602EB8602D2ED007A53F8042CAA
:10135000024443F8082C9C45A3EE277AD1D1BAEB7E
:10136000112F029856464FEA11230ED3049A1144C6
:10137000059ACEF81010D35C7F3B07EE903AF8EE5A
:10138000E77A67EE847AA6EEA77ABBEB142F4FEAD2
:1013900014230ED3069A1444079ACEF82C40D35C3B
:1013A0007F3B07EE903AF8EEE77A67EE847AA6EE96
:1013B000277A019BBB421FD3089B1D44099BCEF893
:1013C0004850DB5D7F3B07EE903AF8EEE77A67EE38
:1013D000847AA5EE277A67EE247AFDEEE77A17EE97
:1013E000903A03F5405339F8133040F8043F404534
:1013F0003FF451AF2F0A7FE727EE247AFDEEC77A3C
:1014000017EE903A03F5405339F8133040F8043F93
:1014100080457FF471AF3EE7F8070020FC0700200D
:101420000000C0450000003D00C03F440000000037
:101430007014002000140020F0190020E467020856
:101440009649974A0B6B43F4001343F001032DE9CF
:10145000F0410B630B6CDFF87482924C43F0010394
:101460000B64136823F00C0343F008031360136A42
:1014700023F0F0034FF0804743F01003136200267F
:101480004FF4D040102240F2FF73B8613A62BE625E
:10149000FB6280233B6001F146414FF48073FB60A7
:1014A00001F5EA514FF40073C8F828107E4AC8F8D5
:1014B0002C307E4BC8F83420C8F83030D8F82830AB
:1014C0007B4A43F01803C8F828307A4B16704FF067
:1014D0007E5531464FF4B06220461D6007F063FE32
:1014E0003146754E7022304607F05DFE734B744AEC
:1014F0007448A26400216262C4F8A020E267C4F8C4
:10150000F820C4F8D420C4F85021C4F82C21C4F821
:10151000A821C4F88421C4F80022C4F8DC21C4F84E
:101520005822C4F83422C4F8B022C4F88C22C4F87B
:101530000823C4F8E422C4F86023C4F83C23C4F8A8
:10154000B823C4F89423C4F81024C4F8EC23C4F8D6
:101550006824C4F84424C4F8C024C4F89C24C4F803
:101560001825C4F8F424C4F87025C4F84C25B060DC
:1015700070623064F06542F2107059605964C3F8CB
:101580008410C3F8C410C3F80411C3F84411706187
:101590003063F064B0661D601D64C3F88050C3F80A
:1015A000C050C3F80051C3F84051DA631A62DA67D9
:1015B0001A66C3F8BC20C3F8A020C3F8FC20C3F807
:1015C000E020C3F83C21C3F82021C3F87C21C3F8F4
:1015D0006021C3F8BC21C3F8A021C3F88411C3F86B
:1015E000C411C3F80412C3F84412C3F88412C3F838
:1015F000C412C3F80413C3F84413C3F88051C3F8EA
:10160000C051C3F80052C3F84052C3F88052C3F827
:10161000C052C3F80053C3F84053C3F8FC21C3F8C9
:10162000E021C3F83C22C3F82022C3F87C22C3F88F
:101630006022C3F8BC22C3F8A022C3F8FC22C3F87E
:10164000E022C3F83C23C3F82023C3F87C23C3F86B
:101650006023C3F8BC23C3F8A023C3F88053C3F8A6
:101660008413C3F8C413C3F8C053C3F8FC23C3F8EE
:10167000E023FFF729FDFFF727FD134B4FF48052BE
:101680001A60D8F8283043F00103C8F828303B68C6
:1016900043F001033B60BDE8F08100BF0038024029
:1016A0000000024070140020FC07002038000040B9
:1016B000F8070020FC13002000140020FC0F00207D
:1016C0006C40050860A5000800E100E000600240F1
:1016D00008B50D4B1A68510504D40B4B1A68120556
:1016E0000AD408BD9A6842F480629A60FFF7ECFC65
:1016F000054B1A681205F4D59A6842F400629A60A4
:10170000BDE80840FFF7E0BC0060024070B54F4CF8
:1017100006F058FE2368C31A022B00D870BD4C4B4C
:101720009FED4C6A4FF0000E03F5B06103260225D1
:1017300093F82820D3ED027A042A11D8DFE802F0CA
:10174000124B3B7B030093ED077A77EEC77AF5EEF9
:10175000C07AF1EE10FA9CBFDFED3E7A83F828E004
:10176000C3ED027A93F84C20D3ED0B7A042A06D805
:10177000DFE802F0075141031500D3ED0F7AC3ED06
:101780000B7A1A7932B1F5EE407AF1EE10FA01D106
:1017900083F804E058338B42CAD1206070BD93EDCA
:1017A000107A77EEC77AF5EEC07AF1EE10FA45D9E5
:1017B000C3ED0B7AEEE7D3ED056A93ED067A77EE8B
:1017C000E67AF4EEC77AF1EE10FAC9D8F0EE477A6D
:1017D00083F82860C4E7D3ED046A93ED037A77EECB
:1017E000A67AF4EEC77AF1EE10FAB9DBF0EE477A9A
:1017F00083F82850B4E7D3ED0E6A93ED0F7A77EEB5
:10180000E67AF4EEC77AF1EE10FAB8D8F0EE477A3D
:1018100083F84C60B3E7D3ED0D6A93ED0C7A77EE65
:10182000A67AF4EEC77AF1EE10FAA8DBF0EE477A6A
:1018300083F84C50A3E7D3ED067A91E71A7983F841
:101840004CE083ED0B6A002AA2D1A3E7F407002045
:1018500070140020000000002DE9F0432DED028BF4
:1018600083B009280D46019262D0064606F0AAFD13
:10187000AD4B002703F5B068BC46B9469E4608E06C
:10188000624528BF9E4603F1580328BF944643454E
:1018900012D01A791C46A2B193F84C101A68042988
:1018A000A0EB0202ECD1BA4228BF994603F15803DB
:1018B00028BF17464345ECD1B9F1000F14BF4C4681
:1018C00074469A4B03EB861C994B0CF1080803EB0A
:1018D000850393ED008AB8E80F0004F10C0EAEE822
:1018E0000F0098E807000CF1240C8EE80700BCE814
:1018F0000F0004F130070FC79CE8070087E80700D6
:1019000006F060FDDFED8B7A206068EE277A012318
:10191000FCEEE77AA671657184F84C3084F82830C3
:101920002371C4ED157A03B0BDEC028BBDE8F083E2
:1019300006F048FD804BD3E90321B2EB112FC0F034
:10194000E08019799A68DFF828C2A9420CBF1C46CA
:101950000024624566D079498A4263D01968411AE9
:10196000D3E90A26B2EB162FC0F0DB8093F8206093
:10197000734AAE4208BF14465E6A66454ED06F4F4A
:10198000BE424BD0DE69861B8E4247D33146D3E937
:101990001167B6EB172FC0F0ED8093F83C60694FEC
:1019A000AE4208BF3C461E6C66450BD0DFF88CE1AA
:1019B000764507D09E6B861BB14296BFB6468E46D3
:1019C0003A467146D3E91867B6EB172F28D393F838
:1019D0005860AE4224D0DE6D664508D0574FBE42F7
:1019E00005D05B6DC01A584B884228BF1A46002CA0
:1019F00008BF144606F0E6FC302D15D8222D40F223
:101A00008280A5F123030D2B7DD8DFE803F0484841
:101A10007C4D754D57526B5266615C701C3AB6E74F
:101A2000494CE7E700219BE7A5F13103DBB20A2B24
:101A300069D801229A4040F249110A426CD140F221
:101A400004410A4263D1012B404B414941F6FF72E8
:101A50000CBF1946002240F2231318BFC223DDED4C
:101A6000017ADFED3C6A2571F8EEE77A3A4D2060A5
:101A700087EEA67A002020612C48A160E2606361B5
:101A8000D5ED007AD0ED906A67EE277A67EEA67AF8
:101A9000C4ED067A03B0BDEC028BBDE8F0832F499C
:101AA00041F6FF72C223DAE72D4941F2A332C22385
:101AB000D5E72C4941F27F62C223D0E7234941F6A2
:101AC000FF724D23CBE7214941F6FF72C223C6E7DF
:101AD000254943F6FF72C223C1E71C4941F6FF7254
:101AE0009B23BCE7194941F6FF727423B7E71749F6
:101AF00041F6FF72E923B2E71C4941F6FF72C223A7
:101B0000ADE71C4676E712490022C223A7E70B493E
:101B100047F6FF72C223A2E7154947F65A02C223CD
:101B20009DE7074C66E700BF70140020FC0F002003
:101B3000E4E70308FCF4B2450014002064C5000883
:101B40001C140020381400205414002064A5000840
:101B500060A500080000FE42FC130020403402088B
:101B600040540208C01D0208C0DD01086445010898
:101B700064650108004C3DE73814002009287DD039
:101B8000964B1A791AB15A798A4200F0828093F8FA
:101B90005C2022B193F85D208A4200F0848093F8A3
:101BA000B42022B193F8B5208A4200F0878093F8E0
:101BB0000C2122B193F80D218A4200F08A8093F81B
:101BC000642122B193F865218A4200F08D8093F858
:101BD000BC2122B193F8BD218A4200F0908093F895
:101BE000142222B193F815228A4200F0938093F8D0
:101BF0006C2222B193F86D228A4200F0968093F80D
:101C0000C42222B193F8C5228A4200F0998093F849
:101C10001C2322B193F81D238A4200F09C8093F884
:101C2000742322B193F875238A4200F09F8093F8C1
:101C3000CC2322B193F8CD238A4200F0A28093F8FE
:101C4000242422B193F825248A4200F0A58093F839
:101C50007C2422B193F87D248A4200F0A88093F876
:101C6000D42422B193F8D5248A4200F0AB8093F8B3
:101C70002C251AB193F82D258A4200D0704793F88D
:101C80002E258242FAD1042283F8742583F8502548
:101C9000F4E79A7982427FF47AAF042283F84C20E9
:101CA00083F8282073E793F85E2082427FF477AFB1
:101CB000042283F8A42083F8802070E793F8B620EC
:101CC00082427FF474AF042283F8FC2083F8D8208A
:101CD0006DE793F80E2182427FF471AF042283F8FE
:101CE000542183F830216AE793F8662182427FF419
:101CF0006EAF042283F8AC2183F8882167E793F85C
:101D0000BE2182427FF46BAF042283F8042283F861
:101D1000E02164E793F8162282427FF468AF042240
:101D200083F85C2283F8382261E793F86E228242BE
:101D30007FF465AF042283F8B42283F890225EE733
:101D400093F8C62282427FF462AF042283F80C2308
:101D500083F8E8225BE793F81E2382427FF45FAFAB
:101D6000042283F8642383F8402358E793F876230A
:101D700082427FF45CAF042283F8BC2383F898236B
:101D800055E793F8CE2382427FF459AF042283F8BB
:101D9000142483F8F02352E793F8262482427FF438
:101DA00056AF042283F86C2483F848244FE793F855
:101DB0007E2482427FF453AF042283F8C42483F844
:101DC000A0244CE793F8D62482427FF450AF04223B
:101DD00083F81C2583F8F82449E700BF701400201D
:101DE0007E4B00B503EB801C81B90CF1240E062A52
:101DF0000AD8DFE812F007002E003C004B024A0030
:101E0000580021008EED000A5DF804FB0CF1080E6D
:101E1000062AF9D801A353F822F000BF051E0008D6
:101E2000531E00086F1E0008232100088B1E0008A7
:101E3000F11F0008391E0008BDEEC00A10EE102A7E
:101E4000032A00F2A483DFE812F09F0398039103B2
:101E5000D5029FED637ADFED637ADFED636AE0EE32
:101E6000077A86EEA77A8EED017A5DF804FB9FED86
:101E70005C7ADFED5C7ADFED5C6AE0EE077A86EE95
:101E8000A77A8EED027A5DF804FB9FED557ADFEDBF
:101E9000557ADFED556AE0EE077A86EEA77A8EED89
:101EA000047A5DF804FB30EE000A504BFCEEC07A79
:101EB0001979CEED057A17EE902A19B199798142F8
:101EC00008BF5A6493F85C1029B193F85E10814200
:101ED00008BFC3F89C2093F8B41029B193F8B6104A
:101EE000814208BFC3F8F42093F80C1129B193F88C
:101EF0000E11814208BFC3F84C2193F8641129B137
:101F000093F86611814208BFC3F8A42193F8BC116D
:101F100029B193F8BE11814208BFC3F8FC2193F8A0
:101F2000141229B193F81612814208BFC3F8542243
:101F300093F86C1229B193F86E12814208BFC3F86E
:101F4000AC2293F8C41229B193F8C612814208BF9B
:101F5000C3F8042393F81C1329B193F81E1381428C
:101F600008BFC3F85C2393F8741329B193F8761370
:101F7000814208BFC3F8B42393F8CC1329B193F876
:101F8000CE13814208BFC3F80C2493F8241429B15E
:101F900093F82614814208BFC3F8642493F87C1494
:101FA00029B193F87E14814208BFC3F8BC2493F88A
:101FB000D41429B193F8D614814208BFC3F814256C
:101FC00093F82C1500293FF41FAF93F82E1581428A
:101FD0007FF41AAFC3F86C2516E700BFFC0F002092
:101FE0003333B33F17B7D1386F12033B701400205F
:101FF00030EE000AA44BFCEEC07A1979CEED057ADA
:1020000017EE902A19B19979814208BF1A6293F8A4
:102010005C1021B193F85E10814208BF9A6793F873
:10202000B41029B193F8B610814208BFC3F8D0208C
:1020300093F80C1129B193F80E11814208BFC3F82F
:10204000282193F8641129B193F86611814208BFE1
:10205000C3F8802193F8BC1129B193F8BE118142D5
:1020600008BFC3F8D82193F8141229B193F81612B7
:10207000814208BFC3F8302293F86C1229B193F85B
:102080006E12814208BFC3F8882293F8C41229B1A6
:1020900093F8C612814208BFC3F8E02293F81C13DC
:1020A00029B193F81E13814208BFC3F8382393F86F
:1020B000741329B193F87613814208BFC3F89023B3
:1020C00093F8CC1329B193F8CE13814208BFC3F81B
:1020D000E82393F8241429B193F82614814208BF09
:1020E000C3F8402493F87C1429B193F87E148142FC
:1020F00008BFC3F8982493F8D41429B193F8D614E0
:10210000814208BFC3F8F02493F82C1500293FF44E
:102110007BAE93F82E1581427FF476AEC3F8482546
:1021200072E6594B8CED050A1A792AB19A798242E6
:1021300004BF10EE102A9A6193F85C2032B193F834
:102140005E20824204BF10EE102A1A6793F8B42072
:102150003AB193F8B620824204BF10EE102AC3F8B9
:10216000C82093F80C213AB193F80E21824204BFA3
:1021700010EE102AC3F8202193F864213AB193F8A5
:102180006621824204BF10EE102AC3F8782193F82A
:10219000BC213AB193F8BE21824204BF10EE102A4E
:1021A000C3F8D02193F814223AB193F81622824250
:1021B00004BF10EE102AC3F8282293F86C223AB11B
:1021C00093F86E22824204BF10EE102AC3F88022D8
:1021D00093F8C4223AB193F8C622824204BF10EEAB
:1021E000102AC3F8D82293F81C233AB193F81E237F
:1021F000824204BF10EE102AC3F8302393F87423F0
:102200003AB193F87623824204BF10EE102AC3F845
:10221000882393F8CC233AB193F8CE23824204BFAB
:1022200010EE102AC3F8E02393F824243AB193F86F
:102230002624824204BF10EE102AC3F8382493F8F3
:102240007C243AB193F87E24824204BF10EE102A17
:10225000C3F8902493F8D4243AB193F8D624824258
:1022600004BF10EE102AC3F8E82493F82C25002AA6
:102270003FF4CAAD93F82E2582427FF4C5AD10EE2F
:10228000102AC3F84025BFE570140020B54B8CED33
:102290000C0A1A792AB19A79824204BF10EE102AE8
:1022A000DA6393F85C203AB193F85E20824204BF6F
:1022B00010EE102AC3F8942093F8B4203AB193F8A2
:1022C000B620824204BF10EE102AC3F8EC2093F827
:1022D0000C213AB193F80E21824204BF10EE102A6D
:1022E000C3F8442193F864213AB193F866218242FD
:1022F00004BF10EE102AC3F89C2193F8BC213AB118
:1023000093F8BE21824204BF10EE102AC3F8F421D4
:1023100093F814223AB193F81622824204BF10EEC9
:10232000102AC3F84C2293F86C223AB193F86E222B
:10233000824204BF10EE102AC3F8A42293F8C422EC
:102340003AB193F8C622824204BF10EE102AC3F8B5
:10235000FC2293F81C233AB193F81E23824204BF57
:1023600010EE102AC3F8542393F874233AB193F86B
:102370007623824204BF10EE102AC3F8AC2393F8F0
:10238000CC233AB193F8CE23824204BF10EE102A38
:10239000C3F8042493F824243AB193F82624824203
:1023A00004BF10EE102AC3F85C2493F87C243AB1E1
:1023B00093F87E24824204BF10EE102AC3F8B4249E
:1023C00093F8D4243AB193F8D624824204BF10EE95
:1023D000102AC3F80C2593F82C25002A3FF414ADDD
:1023E00093F82E2582427FF40FAD10EE102AC3F829
:1023F000642509E5002900F080815B4BCEF8183098
:10240000584B1A792AB19A79824204BFDEF8182013
:102410005A6293F85C2032B193F85E20824204BF86
:10242000DEF81820DA6793F8B4203AB193F8B620B2
:10243000824204BFDEF81820C3F8D42093F80C21A0
:102440003AB193F80E21824204BFDEF81820C3F897
:102450002C2193F864213AB193F86621824204BF9B
:10246000DEF81820C3F8842193F8BC213AB193F820
:10247000BE21824204BFDEF81820C3F8DC2193F8A5
:1024800014223AB193F81622824204BFDEF81820D3
:10249000C3F8342293F86C223AB193F86E22824248
:1024A00004BFDEF81820C3F88C2293F8C4223AB196
:1024B00093F8C622824204BFDEF81820C3F8E42253
:1024C00093F81C233AB193F81E23824204BFDEF82E
:1024D0001820C3F83C2393F874233AB193F8762379
:1024E000824204BFDEF81820C3F8942393F8CC236B
:1024F0003AB193F8CE23824204BFDEF81820C3F825
:10250000EC2393F824243AB193F82624824204BFA2
:10251000DEF81820C3F8442493F87C243AB193F8E9
:102520007E24824204BFDEF81820C3F89C2493F86E
:10253000D4243AB193F8D624824204BFDEF818209E
:10254000C3F8F42493F82C25002A3FF45DAC93F8EB
:102550002E2582427FF458ACDEF81820C3F84C25B3
:1025600052E400BF70140020E4E90308002900F0E1
:10257000C880684BCEF8183042E7002900F0C580CB
:10258000654BCEF818303BE7644BCEF81830002985
:102590007FF436AF624B1A792AB19A79824204BF2E
:1025A000DEF818209A6493F85C203AB193F85E2024
:1025B000824204BFDEF81820C3F8A02093F8B420AC
:1025C0003AB193F8B620824204BFDEF81820C3F86F
:1025D000F82093F80C213AB193F80E21824204BFFF
:1025E000DEF81820C3F8502193F864213AB193F82B
:1025F0006621824204BFDEF81820C3F8A82193F8B0
:10260000BC213AB193F8BE21824204BFDEF8182003
:10261000C3F8002293F814223AB193F816228242AA
:1026200004BFDEF81820C3F8582293F86C223AB1A0
:1026300093F86E22824204BFDEF81820C3F8B0225D
:1026400093F8C4223AB193F8C622824204BFDEF85E
:102650001820C3F8082393F81C233AB193F81E23DB
:10266000824204BFDEF81820C3F8602393F8742375
:102670003AB193F87623824204BFDEF81820C3F8FB
:10268000B82393F8CC233AB193F8CE23824204BF07
:10269000DEF81820C3F8102493F824243AB193F8F4
:1026A0002624824204BFDEF81820C3F8682493F879
:1026B0007C243AB193F87E24824204BFDEF81820CD
:1026C000C3F8C02493F8D4243AB193F8D6248242B4
:1026D00004BFDEF81820C3F8182593F82C25002A2B
:1026E0003FF492AB93F82E2582427FF48DABDEF857
:1026F0001820C3F87025FFF787BB0A4BCEF81830B7
:1027000048E7094BCEF8183044E7084BCEF81830AC
:1027100040E700BFE4290408E46904086C400508A8
:1027200070140020E4270308E4670308E4A7030803
:1027300010B9024B83ED000A704700BFFC13002064
:1027400082B07829019214D07B2912D0072901D0B8
:1027500002B0704707EE902ADFED7C6A7C4BF8EE02
:10276000E77A03EB801387EEA67A83ED007A02B056
:102770007047784B9A79824200F0DD8093F85E20B2
:10278000824200F0CD8093F8B620824200F0BD80F6
:1027900093F80E21824200F0AD8093F866218242C8
:1027A00000F09D8093F8BE21824200F08D8093F866
:1027B000162282427DD093F86E2282426FD093F827
:1027C000C622824261D093F81E23824253D093F8EE
:1027D0007623824245D093F8CE23824237D093F8B5
:1027E0002624824229D093F87E2482421BD093F87B
:1027F000D62482420DD093F82E258242A8D193F898
:102800002C25002AA4D0042283F8742583F85025AF
:102810009EE793F8D424002AEDD0042283F81C25E7
:1028200083F8F824E7E793F87C24002ADFD0042219
:1028300083F8C42483F8A024D9E793F82424002A39
:10284000D1D0042283F86C2483F84824CBE793F892
:10285000CC23002AC3D0042283F8142483F8F02365
:10286000BDE793F87423002AB5D0042283F8BC2373
:1028700083F89823AFE793F81C23002AA7D00422FB
:1028800083F8642383F84023A1E793F8C422002A45
:1028900099D0042283F80C2383F8E82293E793F875
:1028A0006C22002A8BD0042283F8B42283F8902271
:1028B00085E793F81422002A3FF47DAF042283F8C1
:1028C0005C2283F8382276E793F8BC21002A3FF493
:1028D0006EAF042283F8042283F8E02167E793F8BF
:1028E0006421002A3FF45EAF042283F8AC2183F810
:1028F000882157E793F80C21002A3FF44EAF0422B9
:1029000083F8542183F8302147E793F8B420002A54
:102910003FF43EAF042283F8FC2083F8D82037E749
:1029200093F85C20002A3FF42EAF042283F8A42001
:1029300083F8802027E71A79002A3FF41FAF04228A
:1029400083F84C2083F8282018E700BF0000FE42DF
:10295000FC0F00207014002000220A48114650F895
:102960003230A3F58063002B02F10102B8BF5B4255
:10297000B2F5807F1944F2D100EE101ABAEEC80AFF
:10298000704700BFFC07002070B5202200210446DC
:1029900006F009FC784BD3E90321B2EB112F24D3C5
:1029A0009D68080A75498D4200F09F8074498D42E8
:1029B00000F0BC8073498D4240F0CC800421724EFF
:1029C000B54240F097801C2107EE102A07EE900ACE
:1029D000B8EE476AF8EEE77AB7EE007AC7EE866A95
:1029E000621877EE667AC2ED007AD3E90A21B2EB7B
:1029F000112F4FEA112021D35D6A60498D426DD0BD
:102A00005F498D4200F099805E498D4240F0A88078
:102A100004215D4EB54266D11C2107EE102A07EE57
:102A2000900AB8EE476AF8EEE77AB7EE007AC7EE9A
:102A3000866A621877EE667AC2ED007AD3E91121D0
:102A4000B2EB112F4FEA112020D31D6C4B498D4260
:102A500059D04B498D425DD04A498D4240F0868025
:102A60000421494EB54253D11C2107EE102A07EE2E
:102A7000900AB8EE476AF8EEE77AB7EE007AC7EE4A
:102A8000866A621877EE667AC2ED007AD3E918207A
:102A9000B2EB102F4FEA10211FD3DB6D3748834272
:102AA0002AD0374883423BD0364883424CD1042059
:102AB000354DAB4225D11C2307EE901AB8EEE77ACC
:102AC00007EE902AF8EE677AF7EE006A87EE276A3B
:102AD0001C4476EEC67AC4ED007A70BD02212B4EFE
:102AE000B5422BD10521890097E70221274EB54237
:102AF0001DD10521890067E70220244DAB4210D18A
:102B000005208300D8E70221204EB54203D10521DC
:102B10008900AAE703211E4EB542A2D11821A4E7DD
:102B200003201B4DAB42C3D11823C5E70321184E28
:102B3000B5427FF444AF182146E70321144EB54255
:102B40007FF467AF182168E71248181AB0FA80F0CE
:102B50004009D2E70F49691AB1FA81F14909C5E77D
:102B60000C49691AB1FA81F14909B8E70949691AAA
:102B7000B1FA81F14909C7E7001400206445010852
:102B800064650108C0DD010840540208C01D020848
:102B90004034020864C50008474938B50B6B474DFF
:102BA000474C43F4800343F001030B634B6C43F445
:102BB00080534B642B68434923F4406343F4006320
:102BC0002B602B6823F4404343F400432B602B68B5
:102BD00023F0C00343F040032B602B6823F44073C1
:102BE00043F480732B602B6823F4405343F48053E9
:102BF0002B602B6A23F4700343F4A0032B622B6A2F
:102C000023F070434FF4457243F0A0432B622260DF
:102C100022682D4B42F0400222604FF4806099659B
:102C20002A4A2B49D86559661A669A6D42F01002F5
:102C30009A65284B4FF000625A606B6923F00803D5
:102C400001206B6105F0C4FB6B69234A43F0080364
:102C50006B616B6923F040036B616B6923F01003B8
:102C600002F11A006B6112F8013FE360A3689B0751
:102C7000FCD5A16811F08001FBD18242F3D10F4C49
:102C8000164862690E4B42F04002626100F58064B2
:102C900000F8011FD9609A689507FCD59A6812065A
:102CA000FCD4A042F4D1054A0D495369012043F0F8
:102CB00010035361087038BD003802400000024024
:102CC0000030014040040006006402400C30014026
:102CD000F419002000E100E0E3A90408F319002042
:102CE000F01900203B4A137803B9FEE73A4B002164
:102CF00010B411705969394A21F04001596159697C
:102D0000202021F010015961D06093689907FCD50B
:102D1000324A936813F08003FBD13049D3608B684B
:102D20009A07FCD52D4A93681B06FCD421232B4916
:102D3000D3608B689C07FCD5284A936813F0800306
:102D4000FBD12649D3608B689807FCD5234A93684A
:102D50001906FCD47F232149D3608B689A07FCD5E0
:102D60001E4A93681B06FCD422231C49D3608B683F
:102D70009C07FCD5194A936813F08003FBD11749CF
:102D8000D3608B689807FCD5144A93681906FCD465
:102D900007231249D3608B689A07FCD50F4A9368C2
:102DA0001B06FCD40C480E4B41690E4C41F040010F
:102DB0004161516841F0020151604FF480600A4A5C
:102DC000D8655C661A669A6D5DF8044B42F00102A4
:102DD0009A657047F0190020000002400030014061
:102DE00000640240F41900200C30014008B50E4B7D
:102DF0001A68120100D408BD9A680C490C4842F0C8
:102E000000629A604B680B4A23F002034B605369DF
:102E100043F01003536100214FF4806206F0C3F9C0
:102E2000054B01221A7008BD0064024000300140C9
:102E3000F419002000000240F0190020F0B5A3EBC7
:102E4000010E141A84EAE4758EEAEE76A5EBE475B9
:102E5000A6EBEE76B54227DABEF1000FB4BF4FF015
:102E6000FF3501258B424FEA042E4FEA00209EFBDE
:102E7000F6FE18D02D4F01260A01041202F47862E2
:102E800001F0070CB0F5004F2244704406FA0CFC28
:102E900006D23F2904D8BC5C4CEA040C07F802C0F7
:102EA00029448B42E8D1F0BD002C4FEA0E2E4FEAA8
:102EB00001219EFBF5FE1DDB8242F4D01B4D012457
:102EC0000B124FEA031C7F280CF4786C03F0070305
:102ED000844404FA03F300F1010007D8B1F5804FF0
:102EE00004D215F80C60334305F80C30904271445D
:102EF000E6D1F0BD8242D6D00C4E01250B121C014A
:102F00007F2804F4786403F00703044405FA03F30C
:102F100000F1FF3005D8B1F5804F02D2375D3B4359
:102F2000335582427144E9D1F0BD00BFF41900204D
:102F3000F0B5A3EB010E141A84EAE47C8EEAEE7578
:102F4000ACEBE47CA5EBEE75AC452BDABEF1000FE3
:102F50004FEA042EB4BF4FF0FF3401248B424FEAF6
:102F600000209EFBF5FE1CD0304E012511F0010F14
:102F70004FEA202C11D00A0102F478626244B0F5C5
:102F8000004F01F0070C05FA0CFC06D23F2904D8CB
:102F9000B75C4CEA070C06F802C021448B4270442F
:102FA000E4D1F0BD002C4FEA0E2E4FEA01219EFB2A
:102FB000FCFE33DB8242F4D01C4D0124C30713D541
:102FC0000B124FEA031C0CF4786C03F007037F2804
:102FD000844404FA03F307D8B1F5804F04D215F8FE
:102FE0000C60334305F80C30013082427144E5D166
:102FF000F0BD0C12230103F478637F280B4E0344C9
:1030000004F0070408D8B1F5804F05D2F75C01251C
:1030100005FA04F43C43F454013871448242C0D0B0
:10302000C407E6D401387144F8E700BFF419002062
:103030002DE9F04F2DED0C8BD5B0FFF78DFC0CA8D2
:10304000F0EE408AFFF7A0FCEE49EF4B0A789FEDC7
:10305000EF9ADDED0C1A9DED0D2ADDED0E2A9DEDAA
:103060000F3ADDED103A9DED114ADDED124A9FED6C
:10307000E81AE84F03EB8200C0ED008AD3ED007A36
:1030800093ED017AD3ED026A93ED0E5AD3ED0F5A08
:1030900077EE897A013277EE877A93ED037A77EECD
:1030A000A67AD3ED046A77EE877A93ED057A77EE08
:1030B000A67AD3ED066A77EE877A93ED077A77EEF4
:1030C000A67AD3ED086A77EE877A93ED097A77EEE0
:1030D000A67AD3ED0A6A77EE877A93ED0B7A77EECC
:1030E000A67AD3ED0C6A77EE877A93ED0D7ACA4B08
:1030F00077EEA67AF3EE0C6A77EE877AB3EE017A72
:10310000B0EE476AA1EEA66A02F00F020A70F0EE76
:10311000471AE2EE261AC14AB0EE472AA2EEA62AC4
:10312000F0EE472AE3EE262AB0EE473AA3EEA63A9F
:10313000F0EE473AE4EE263A77EE857AB0EE474A6B
:10314000A4EEA64A77EEA57ADFEDB55A83ED046AC0
:1031500067EEA57ADFEDB35AC3ED0A1A83ED102AA4
:10316000C3ED162A83ED1C3AC3ED223A83ED284ABB
:103170009DED134A9FEDAC6A1268DFEDAC4AE7EEB5
:10318000815AA7FB02173F09F0EE477AE4EE267A50
:1031900007EB8707B2EB8707B7EE005A35EE685AA0
:1031A000B0EE467AA5EE247AC3ED2E7AA04BC3ED9D
:1031B000005AA04B83ED007A00F0A983DFF88CB2AF
:1031C000DFF88CA2DFED927A9B4B9FED9CAA9FEDDE
:1031D0009C8A9FED9C9ADFF87C82CDF82CA078EE3B
:1031E000A77AF0EE68CAC3ED007AD94698F80030A5
:1031F000002B00F06381D8ED04AAD8ED059AD8ED34
:10320000067AD8ED014A98ED024AD8ED033A2AEE43
:103210008A6A69EE8A6ABDEEC66AFDEEE66A16EE55
:10322000101A27EE8A7A16EE902AC1F30B04BDEE2F
:10323000C77A09EB840417EE103A94ED003A01F5D1
:103240008061C2F30B04C1F30B0002F5806109EB4E
:103250008402D2ED002AC3F30B0403F58062C2F3AB
:103260000B0209EB840393ED002A09EB820209EBC0
:103270008003714893ED005A92ED006A724B6D4ADB
:10328000D0ED006AD2ED008AC1F30B0109EB810198
:10329000D1ED005AB1EE420AF1EE620AB1EE431AE4
:1032A00034AA03F160040021F0EE081A93ED01BA8C
:1032B00093ED00CA93ED027A26EE8BBA26EE8CCA05
:1032C00062EE0BBA26EE877AE6EE0CBA0C33481C97
:1032D00025EE87DA26EE0BBAA0EEABDA0832A0EEC6
:1032E0000CBA22EE877A25EE0DCAA5EEAB7A63EE14
:1032F0000DBAA1EE0BCAE5EE0BBA34EE877A34EEC6
:103300002BBA33EE8CCAB4EEE1BAF1EE10FA48BF34
:10331000B0EE08BAC8EE8BBA48BFC1B29C42B0EE5C
:1033200048BA2BEE8CCA6BEE87BAB0EE497AACEE97
:1033300008BAABEE887ABDEECBBABDEEC77A02ED25
:1033400001BA02ED027AB1D1082904BF002388F83E
:103350000030374B98ED0A5A93ED003AD8ED085AF1
:1033600098ED096AD8ED0B6A98ED077A369A379B83
:1033700034EE434A74EEC54A76EEA36A79EEA59A16
:1033800077EE867A37EE2A7ADDE9340188ED024A53
:10339000C8ED014AC8ED036A88ED047AC8ED067AE3
:1033A000C8ED059A16461F468B468246FFF746FD36
:1033B000DDE93845394622462B46304604970396C8
:1033C000FFF73CFDDDE93A67294632463B46204699
:1033D00006950594FFF732FD5B4652463946304666
:1033E000CDF808B0CDF804A008970796FFF726FDA2
:1033F000DDE93E45DDE93CAB22462B4659465046C9
:103400002AE000BFD41F0020941F0020000000000D
:103410009A99993ECDCCCCCC041E00208C1F002064
:103420000000803D295C0F3E66660640CDCC4C3FD7
:103430000000002004000020901F002054EF2244D0
:10344000000000420000804200AA04086C40050809
:10345000841F0020DC1F0020FFF7F0FCDDE940673F
:103460002946204632463B460A950994FFF7E6FC7A
:10347000DDE94245394622462B463046FFF7DEFC61
:103480005B46524629462046FFF7D8FCDDE901019C
:103490005B465246FFF7D2FCDDE90923DDE9030173
:1034A000FFF7CCFCDDE905013B463246FFF7C6FCE1
:1034B000DDE907012B462246FFF7C0FCF34B08F17C
:1034C000300898457FF492AE9FEDF17ADDF82CA09C
:1034D0009FEDF08AF0EE087AECEE877A80224021A8
:1034E000CB46FDEEE77ACDED017A9DF90440151B40
:1034F000C4F1400633462846FFF7A0FC33460022BD
:1035000040212046FFF79AFC2346284680220021CE
:10351000FFF794FC0022114623462046FFF78EFC5D
:10352000DD4A9FEDDE6A1268DFEDDD6A9FEDE67A27
:10353000DC4B9AED014AD3ED002ADB4B9AED005AA1
:103540009FEDDA1ADFEDDA1A9FEDDA0A9FEDDA2A3B
:10355000DFEDDA0A019207EE902AF8EE677AB1EE13
:10356000443A67EE867A14AA67EEA67A67EE877AFF
:10357000FDEEE77A17EE901A01F58060C1F30B01BA
:1035800009EB8101D1ED004AC0F30B0009EB80018A
:10359000D1ED005AF1EE643A03F1C001D3ED027AA5
:1035A000D3ED008A93ED017A67EEA46A37EE417A93
:1035B000E8EEA56A0C33083227EE216A67EEA57A99
:1035C000A6EE806A9942E3EEA87A36EE016A27EE0B
:1035D000087AC2EE868AA6EEA17A67EE846A67EE62
:1035E000857AE7EE056AE7EE037A26EEA87A67EEBB
:1035F000A87AF0EE426AE7EE826AF0EE607AE7EED1
:10360000027AFDEEE66AFDEEE77A42ED016A42EDEE
:10361000027AC3D1AA4A9FEDA51A9FED9E8ADFEDDB
:10362000A41A9FEDA40A9FEDA42ADFEDA40A34ABEF
:1036300002F1C001D2ED027AD2ED008A92ED017A58
:1036400064EEA76A37EE417AE5EEA86A0C320833D9
:1036500027EE216A65EEA77AA6EE806A8A42E3EE3B
:10366000A87A36EE016A27EE087AC2EE868AA6EEBE
:10367000A17A67EE846A67EE857AE5EE076AE3EE83
:10368000077A26EEA87A67EEA87AF0EE426AE7EEAD
:10369000826AF0EE607AE7EE027AFDEEE66AFDEE0F
:1036A000E77A43ED016A43ED027AC3D1DDE916679B
:1036B000159B1498194632463B4605460191FFF783
:1036C00037FCDDE9242401990295234628469046DB
:1036D000A146FFF72DFCDDE92645494622462B464B
:1036E0004046CDF81090CDF80C80FFF721FCDDE9C5
:1036F0001889394642464B463046FFF719FC2B469F
:10370000224639463046FFF713FC29462046DDE9BC
:10371000284522462B46FFF70BFCDDE91A67494690
:1037200032463B464046FFF703FC2B4622464946BD
:103730004046FFF7FDFB29462046DDE92A452246A3
:103740002B46FFF7F5FBDDE91C89394642464B461F
:103750003046FFF7EDFB2B46224639463046FFF751
:10376000E7FB29462046DDE92C4522462B46FFF79C
:10377000DFFBDDE91E67494632463B464046FFF720
:10378000D7FB2B46224649464046FFF7D1FB294648
:103790002046DDE92E4522462B46FFF7C9FBDDE931
:1037A0002089394642464B463046FFF7C1FB2B463F
:1037B000224639463046FFF7BBFBDDE93067294634
:1037C000204632463B46FFF7B3FBDDE9224549463A
:1037D00022462B464046FFF7ABFB3B463246494666
:1037E0004046FFF7A5FB39463046DDE932673246F1
:1037F0003B46FFF79DFBDDE9013229462046FFF7F6
:1038000097FB3B46324629462046FFF791FBDDE910
:10381000032339463046FFF78BFBDDE93623DDE92C
:103820003401FFF70BFBDDE93A23DDE93801FFF74F
:1038300005FBDDE93E23DDE93C01FFF7FFFADDE9A9
:103840004223DDE94001FFF7F9FADDE94623DDE92E
:103850004401FFF7F3FADDE94A23DDE94801FFF708
:10386000EDFADDE94E23DDE94C01FFF7E7FADDE98A
:103870005223DDE95001FFF7E1FAFFF733FA064B77
:10388000DFED106AD3ED007A20E000BF3C29002074
:10389000000004423A5E563D8C1F0020BC74133C6D
:1038A000DB0F494004000020C41E002000004842F5
:1038B0002FA67F3F3A5E56BD0000004200008042C6
:1038C000041E00200AD723BC54EF22441FED027AC5
:1038D000F8EE677A67EEA67A67EE877AFDEEE77A0A
:1038E00017EE903A03F58061C1F30B01C3F30B03AC
:1038F0000BEB83020BEB810312681B68CAF80420F0
:10390000CAF8003055B0BDEC0C8BBDE8F08FDFF885
:10391000A0B1DFF8A0A1DFF8A081DFED5DAA9FEDE7
:103920005DAADFF89891DFED5C9A55465E46D8F8BF
:1039300000305A4A03EB43040133A2FB031212097D
:10394000322101FB12332201012119F8020009EB97
:103950000414002840F09180C8F80030504B09F85A
:10396000021018689FED4FDA9FED4FBAFCF7DCFEAE
:1039700045A3D3E90023FCF76BFC07EE907AF8EE41
:10398000E77A824667EEAA7A8B4617EE900AFCF732
:10399000EDFE02460B4650465946FCF789FDFCF702
:1039A0005DFF07EE900A67EE8A7ADFED405A95EDEB
:1039B000017AD5ED006AC4ED029AFDEEE77A27EEB2
:1039C000257A17EE903A03F58062C3F30B03C2F336
:1039D0000B0206EB830384ED0B7A93ED007A84ED02
:1039E000049A06EB8203D3ED007A84ED059AB1EEDA
:1039F000046A67EE867A66EEA56A27EE067AC4ED5B
:103A00000A6A84ED037AC4ED017A84ED069A05F022
:103A100087FA07EE900AF8EEE77ABFEE008A67EEC3
:103A20008D7AB0EE00CAF0EE48CAE7EE8CCA05F017
:103A300077FA07EE900AF8EEE77AF0EE48BA67EE0A
:103A40008D7A6CEE8BCAE7EE8CBA05F069FA07EE58
:103A5000900AF8EEE77A6BEE8BBA67EE8D7A013753
:103A6000A7EE8C8A032FC4ED07CA68EE0B7AC4ED6B
:103A700008BAC4ED097A7FF45AAFAA46B346FFF7F5
:103A8000A1BB00BFAFF300805839B4C876BE9F3FDA
:103A9000920A064054EF2244000020421F85EB5159
:103AA0008C1F002000000030CDCC4C3D5839343CF8
:103AB0006C400508841F0020D81F0020DC1F002058
:103AC0002DE9F041DFF81884FB4FFC4CFC49FD4E1A
:103AD0002DED0C8BD8ED008A9FEDFBCADFEDFBBA14
:103AE000DFEDFBAA9FEDFBBA9FEDFB8A9FEDFBAAE2
:103AF000FDEEE87A4FF4C67017EE903AF8EEE77AEA
:103B000000FB034578EEE78AD7ED007AD5ED013A60
:103B100095ED044AD5ED004A95ED035AD5ED025ACC
:103B200095ED056A0133F8EE677A81FB0321DA1718
:103B300067EE8C7AC2EBE10202EB420102EB41122A
:103B400067EEAB7A9B1A00FB0344FDEEE77AD4EDF7
:103B500001CA94ED047AD4ED00DAD4ED036A94ED51
:103B600002DAF7EE009A17EE903A39EEE89A68EE2C
:103B7000ACCA28EE877A03F58062E3EE89CAC2F305
:103B80000B0206EB820268EEADDA68EEA66AA9EED9
:103B9000047AC3F30B0306EB8303E4EE89DAE9EE60
:103BA000056AD2ED004A93ED005A28EE8DDA67EEF1
:103BB000247AA5EE89DA6CEEA45AB0EE664AE5EEF8
:103BC0006D5AE5EE447AD4ED056A75EEA95A68EEB1
:103BD000A66A77EEA97AE9EE066A27EE057A2CEE58
:103BE000856A8AEEA55ACAEEA75AADEEA46AA4EE7B
:103BF000247A3DEE4BDA76EECB7A66EE056A2DEE50
:103C0000055A27EE257A67EEA57AF0EE485AE5EEDA
:103C1000085AB0EE4A6AA6EE886AF0EE4A6AE7EE03
:103C2000086AB0EE487AA7EE887AFDEEE57A17EEDC
:103C3000901AFDEEC67A17EE900AFDEEE67A17EEC0
:103C4000902AFDEEC77A17EE903AFFF7F7F894ED59
:103C5000047AD5ED047A95ED076AD4ED056AD5EDC1
:103C6000035A28EE877A68EEA66AA9EE277AD4ED81
:103C7000077A68EEA77AE9EE067A95ED056AB0EE66
:103C8000675AD4ED087AE9EE066A28EEA76AD7EDFE
:103C9000007AF8EE677A76EECB4A67EE8C7AD4ED4E
:103CA000036A67EEAB7A68EEA66AFDEEE77AE9EEA4
:103CB000256A17EE903A03F58062D4ED067AD5EDC9
:103CC000065AC2F30B0206EB820292ED004A68EE3E
:103CD000A77AC3F30B0306EB830393ED003AE9EEF7
:103CE000257A67EE045A27EE037AE3EE665AA6EECB
:103CF000847A75EEA96AF0EE673ACAEEA67AF0EE1B
:103D0000485A64EEA76A27EE277AE6EE885AF0EE64
:103D10004A7AE7EE087ABDEEE57AFDEEE77A17EE2D
:103D2000101A25EE047A17EE900AA3EE637A65EE78
:103D3000037A37EE297AE3EE847ACAEE876AB0EE28
:103D40004A7A67EEA67AA7EE887AFDEEC77A95EDF5
:103D5000087A17EE902AF0EE467AE9EE077AB0EE8E
:103D6000487A77EECB7A67EEA67AA7EE887AFDEEF0
:103D7000C77A17EE903AFFF761F894ED0A7AD5ED1D
:103D80000A7A95ED0D6AD4ED0B6AD5ED095A28EE45
:103D9000877A68EEA66AA7EE897AD4ED0D7A68EE86
:103DA000A77AE6EE097A95ED0B6AB0EE675AD4ED84
:103DB0000E7AE6EE096A28EEA76AD7ED007AF8EEE9
:103DC000677A76EECB4A67EE8C7AD4ED096A67EEB5
:103DD000AB7A68EEA66AFDEEE77AE5EE896A17EE41
:103DE000903A03F58062D4ED0C7AD5ED0C5AC2F30B
:103DF0000B0206EB820292ED004A68EEA77AC3F34B
:103E00000B0306EB830393ED003AE5EE897A67EE48
:103E1000045A27EE037AE3EE665AA6EE847A75EE2C
:103E2000A96AF0EE673ACAEEA67AF0EE485A64EE56
:103E3000A76A27EE277AE6EE885AF0EE4A7AE7EE8E
:103E4000087ABDEEE57AFDEEE77A17EE101A25EE58
:103E5000047A17EE900AA3EE637A65EE037A37EEE2
:103E6000297AE3EE847ACAEE876AB0EE4A7A67EE80
:103E7000A67AA7EE887AFDEEC77A95ED0E7A17EE50
:103E8000902AF0EE467AE7EE097AB0EE487A77EEBD
:103E9000CB7A67EEA67AA7EE887AFDEEC77A17EEA0
:103EA000903AFEF7CBFF94ED107AD5ED107A95EDB0
:103EB000136AD4ED116A15E08C1F002060AA040873
:103EC000EB071D156C4005080AD723BC54EF2244AC
:103ED0003333F33FCDCCCC3E0000004200008042A3
:103EE000F81D0020D5ED0F5A28EE877A68EEA66AF5
:103EF000A7EE897AD4ED137A68EEA77AE6EE097A0E
:103F000095ED116AB0EE675AD4ED147AE6EE096ABF
:103F100028EEA76AD7ED007AF8EE677A76EECB4AFC
:103F200067EE8C7AD4ED0F6A67EEAB7A68EEA66A1C
:103F3000FDEEE77AE5EE896A17EE903A03F58062C6
:103F4000D4ED127AD5ED125AC2F30B0206EB8202BF
:103F500092ED004A68EEA77AC3F30B0306EB8303E6
:103F600093ED003AE5EE897A67EE045A27EE037A7C
:103F7000E3EE665AA6EE847A75EEA96AF0EE673A29
:103F8000CAEEA67AF0EE485A64EEA76A27EE277AC0
:103F9000E6EE885AF0EE4A7AE7EE087ABDEEE57A68
:103FA000FDEEE77A17EE101A25EE047A17EE900A66
:103FB000A3EE637A65EE037A37EE297AE3EE847A2C
:103FC000CAEE876AB0EE4A7A67EEA67AA7EE887ADA
:103FD000FDEEC77A95ED147A17EE902AF0EE467A48
:103FE000E7EE097AB0EE487A77EECB7A67EEA67AFA
:103FF000A7EE887AFDEEC77A17EE903AFEF71EFF1D
:1040000094ED167AD5ED167A95ED196AD4ED176A06
:10401000D5ED155A28EE877A68EEA66AA7EE897A5A
:10402000D4ED197A68EEA77AE6EE097A95ED176A6B
:10403000B0EE675AD4ED1A7AE6EE096A28EEA76A5E
:10404000D7ED007AF8EE677A76EECB4A67EE8C7A97
:10405000D4ED156A67EEAB7A68EEA66AFDEEE77AF4
:10406000E5EE896A17EE903A03F58062D4ED187A8E
:10407000D5ED185AC2F30B0206EB820292ED004A0C
:1040800068EEA77AC3F30B0306EB830393ED003AC4
:10409000E5EE897A67EE045A27EE037AE3EE665A74
:1040A000A6EE847A75EEA96AF0EE673ACAEEA67AB1
:1040B000F0EE485A64EEA76A27EE277AE6EE885AB1
:1040C000F0EE4A7AE7EE087ABDEEE57AFDEEE77AA1
:1040D00017EE101A25EE047A17EE900AA3EE637A13
:1040E00065EE037A37EE297AE3EE847ACAEE876AC0
:1040F000B0EE4A7A67EEA67AA7EE887AFDEEC77A26
:1041000095ED1A7A17EE902AF0EE467AE7EE097AE4
:10411000B0EE487A77EECB7A67EEA67AA7EE887A89
:10412000FDEEC77A17EE903AFEF788FE94ED1C7A02
:10413000D5ED1C7A95ED1F6AD4ED1D6AD5ED1B5A9D
:1041400028EE877A68EEA66AA7EE897AD4ED1F7A00
:1041500068EEA77AE6EE097A95ED1D6AB0EE675A29
:10416000D4ED207AE6EE096A28EEA76AD7ED007A48
:10417000F8EE677A76EECB4A67EE8C7AD4ED1B6A5E
:1041800067EEAB7A68EEA66AFDEEE77AE5EE896A3D
:1041900017EE903A03F58062D4ED1E7AD5ED1E5AE3
:1041A000C2F30B0206EB820292ED004A68EEA77A98
:1041B000C3F30B0306EB830393ED003AE5EE897A34
:1041C00067EE045A27EE037AE3EE665AA6EE847A87
:1041D00075EEA96AF0EE673ACAEEA67AF0EE485A92
:1041E00064EEA76A27EE277AE6EE885AF0EE4A7A5E
:1041F000E7EE087ABDEEE57AFDEEE77A17EE101AE3
:1042000025EE047A17EE900AA3EE637A65EE037A40
:1042100037EE297AE3EE847ACAEE876AB0EE4A7AFC
:1042200067EEA67AA7EE887AFDEEC77A95ED207A3A
:1042300017EE902AF0EE467AE7EE097AB0EE487A69
:1042400077EECB7A67EEA67AA7EE887AFDEEC77A8C
:1042500017EE903AFEF7F2FD94ED227AD5ED227A30
:1042600095ED256AD4ED236AD5ED215A28EE877A9B
:1042700068EEA66AA7EE897AD4ED257A68EEA77A69
:10428000E6EE097A95ED236AB0EE675AD4ED267A08
:10429000E6EE096A28EEA76AD7ED007AF8EE677AAB
:1042A00076EECB4A67EE8C7AD4ED216A67EEAB7A74
:1042B00068EEA66AFDEEE77AE5EE896A17EE903AB7
:1042C00003F58062D4ED247AD5ED245AC2F30B02B3
:1042D00006EB820292ED004A68EEA77AC3F30B0365
:1042E00006EB830393ED003AE5EE897A67EE045A14
:1042F00027EE037AE3EE665AA6EE847A75EEA96A93
:10430000F0EE673ACAEEA67AF0EE485A64EEA76A73
:1043100027EE277AE6EE885AF0EE4A7AE7EE087A38
:10432000BDEEE57AFDEEE77A17EE101A25EE047A77
:1043300017EE900AA3EE637A65EE037A37EE297AD8
:10434000E3EE847ACAEE876AB0EE4A7A67EEA67A1E
:10435000A7EE887AFDEEC77A95ED267A17EE902AB9
:10436000F0EE467AE7EE097AB0EE487A77EECB7A4D
:1043700067EEA67AA7EE887AFDEEC77A17EE903A36
:10438000FEF75CFD94ED287AD5ED287A95ED2B6A41
:10439000D4ED296AD5ED275A28EE877A68EEA66A09
:1043A000A7EE897AD4ED2B7A68EEA77AE6EE097A41
:1043B00095ED296AB0EE675AD4ED2C7AE6EE096ADB
:1043C00028EEA76AD7ED007AF8EE677A76EECB4A48
:1043D00067EE8C7AD4ED276A67EEAB7A68EEA66A50
:1043E000FDEEE77AE5EE896A17EE903A03F5806212
:1043F000D4ED2A7AD5ED2A5AC2F30B0206EB8202DB
:1044000092ED004A68EEA77AC3F30B0306EB830331
:1044100093ED003AE5EE897A67EE045A27EE037AC7
:10442000E3EE665AA6EE847A75EEA96AF0EE673A74
:10443000CAEEA67AF0EE485A64EEA76A27EE277A0B
:10444000E6EE885AF0EE4A7AE7EE087ABDEEE57AB3
:10445000FDEEE77A17EE101A25EE047A17EE900AB1
:10446000A3EE637A65EE037A37EE297AE3EE847A77
:10447000CAEE876AB0EE4A7A67EEA67AA7EE887A25
:10448000FDEEC77A95ED2C7A17EE902AF0EE467A7B
:10449000E7EE097AB0EE487A77EECB7A67EEA67A45
:1044A000A7EE887AFDEEC77A17EE903AFEF7C6FCC3
:1044B00094ED2E7AD5ED2E7A95ED316AD4ED2F6AF2
:1044C000D5ED2D5A28EE877A68EEA66AA7EE897A8E
:1044D000D4ED317A68EEA77AE6EE097A95ED2F6A87
:1044E000B0EE675AD4ED327AE6EE096A28EEA76A92
:1044F000D7ED007AF8EE677A76EECB4A67EE8C7AE3
:10450000D4ED2D6A67EEAB7A68EEA66AFDEEE77A27
:10451000E5EE896A17EE903A03F58062D4ED307AC1
:10452000D5ED305AC2F30B0206EB820292ED004A3F
:1045300068EEA77AC3F30B0306EB830393ED003A0F
:10454000E5EE897A67EE045A27EE037AE3EE665ABF
:10455000A6EE847A75EEA96AF0EE673ACAEEA67AFC
:10456000F0EE485A64EEA76A27EE277AE6EE885AFC
:10457000F0EE4A7AE7EE087ABDEEE57AFDEEE77AEC
:1045800017EE101A25EE047A17EE900AA3EE637A5E
:1045900065EE037A37EE297AE3EE847ACAEE876A0B
:1045A000B0EE4A7A67EEA67AA7EE887AFDEEC77A71
:1045B00095ED327A17EE902AF0EE467AE7EE097A18
:1045C000B0EE487A77EECB7A67EEA67AA7EE887AD5
:1045D000FDEEC77A17EE903AFEF730FC94ED347A90
:1045E000D5ED347A95ED376AD4ED356AD5ED335A89
:1045F00028EE877A68EEA66AA7EE897AD4ED377A34
:1046000068EEA77AE6EE097A95ED356AB0EE675A5C
:10461000D4ED387AE6EE096A28EEA76AD7ED007A7B
:10462000F8EE677A76EECB4A67EE8C7AD4ED336A91
:1046300067EEAB7A68EEA66AFDEEE77AE5EE896A88
:1046400017EE903A03F58062D4ED367AD5ED365AFE
:10465000C2F30B0206EB820292ED004A68EEA77AE3
:10466000C3F30B0306EB830393ED003AE5EE897A7F
:1046700067EE045A27EE037AE3EE665AA6EE847AD2
:1046800075EEA96AF0EE673ACAEEA67AF0EE485ADD
:1046900064EEA76A27EE277AE6EE885AF0EE4A7AA9
:1046A000E7EE087ABDEEE57AFDEEE77A17EE101A2E
:1046B00025EE047A17EE900AA3EE637A65EE037A8C
:1046C00037EE297AE3EE847ACAEE876AB0EE4A7A48
:1046D00067EEA67AA7EE887AFDEEC77A95ED387A6E
:1046E00017EE902AF0EE467AE7EE097AB0EE487AB5
:1046F00077EECB7A67EEA67AA7EE887AFDEEC77AD8
:1047000017EE903AFEF79AFB94ED3A7AD5ED3A7AA5
:1047100095ED3D6AD4ED3B6AD5ED395A28EE877A9E
:1047200068EEA66AA7EE897AD4ED3D7A68EEA77A9C
:10473000E6EE097A95ED3B6AB0EE675AD4ED3E7A23
:10474000E6EE096A28EEA76AD7ED007AF8EE677AF6
:1047500076EECB4A67EE8C7AD4ED396A67EEAB7AA7
:1047600068EEA66AFDEEE77AE5EE896A17EE903A02
:1047700003F58062D4ED3C7AD5ED3C5AC2F30B02CE
:1047800006EB820292ED004A68EEA77AC3F30B03B0
:1047900006EB830393ED003AE5EE897A67EE045A5F
:1047A00027EE037AE3EE665AA6EE847A75EEA96ADE
:1047B000F0EE673ACAEEA67AF0EE485A64EEA76ABF
:1047C00027EE277AE6EE885AF0EE4A7AE7EE087A84
:1047D000BDEEE57AFDEEE77A17EE101A25EE047AC3
:1047E00017EE900AA3EE637A65EE037A37EE297A24
:1047F000E3EE847ACAEE876AB0EE4A7A67EEA67A6A
:10480000A7EE887AFDEEC77A95ED3E7A17EE902AEC
:10481000F0EE467AE7EE097AB0EE487A77EECB7A98
:1048200067EEA67AA7EE887AFDEEC77A17EE903A81
:10483000FEF704FB94ED467AD5ED467A95ED496A8C
:10484000D4ED476AD5ED455A28EE877A68EEA66A18
:10485000A7EE897AD4ED497A68EEA77AE6EE097A6E
:1048600095ED476AB0EE675AD4ED4A7AE6EE096AEA
:1048700028EEA76AD7ED007AF8EE677A76EECB4A93
:1048800067EE8C7AD4ED456A67EEAB7A68EEA66A7D
:10489000FDEEE77AE5EE896A17EE903A03F580625D
:1048A000D4ED487AD5ED485AC2F30B0206EB8202EA
:1048B00092ED004A68EEA77AC3F30B0306EB83037D
:1048C00093ED003AE5EE897A67EE045A27EE037A13
:1048D000E3EE665AA6EE847A75EEA96AF0EE673AC0
:1048E000CAEEA67AF0EE485A64EEA76A27EE277A57
:1048F000E6EE885AF0EE4A7AE7EE087ABDEEE57AFF
:10490000FDEEE77A17EE101A25EE047A17EE900AFC
:10491000A3EE637A65EE037A37EE297AE3EE847AC2
:10492000CAEE876AB0EE4A7A67EEA67AA7EE887A70
:10493000FDEEC77A95ED4A7A17EE902AF0EE467AA8
:10494000E7EE097AB0EE487A77EECB7A67EEA67A90
:10495000A7EE887AFDEEC77A17EE903AFEF76EFA68
:1049600094ED3D7AD5ED3D7A95ED406AD4ED3E6A01
:10497000D5ED3C5A28EE877A68EEA66AA7EE897ACA
:10498000D4ED407A68EEA77AE6EE097A95ED3E6AB4
:10499000B0EE675AD4ED417AE6EE096A28EEA76ACE
:1049A000D7ED007AF8EE677A76EECB4A67EE8C7A2E
:1049B000D4ED3C6A67EEAB7A68EEA66AFDEEE77A64
:1049C000E5EE896A17EE903A03F58062D4ED3F7AFE
:1049D000D5ED3F5AC2F30B0206EB820292ED004A7C
:1049E00068EEA77AC3F30B0306EB830393ED003A5B
:1049F000E5EE897A67EE045A27EE037AE3EE665A0B
:104A0000A6EE847A75EEA96AF0EE673ACAEEA67A47
:104A1000F0EE485A64EEA76A27EE277AE6EE885A47
:104A2000F0EE4A7AE7EE087ABDEEE57AFDEEE77A37
:104A300017EE101A25EE047A17EE900AA3EE637AA9
:104A400065EE037A37EE297AE3EE847ACAEE876A56
:104A5000B0EE4A7A67EEA67AA7EE887AFDEEC77ABC
:104A600095ED417A17EE902AF0EE467AE7EE097A54
:104A7000B0EE487A77EECB7A67EEA67AA7EE887A20
:104A8000FDEEC77A17EE903AFEF7D8F994ED497A21
:104A9000D5ED497A95ED4C6AD4ED4A6AD5ED485A80
:104AA00028EE877A68EEA66AA7EE897AD4ED4C7A6A
:104AB00068EEA77AE6EE097A95ED4A6AB0EE675A93
:104AC000D4ED4D7AE6EE096A28EEA76AD7ED007AB2
:104AD000F8EE677A76EECB4A67EE8C7AD4ED486AC8
:104AE00067EEAB7A68EEA66AFDEEE77AE5EE896AD4
:104AF00017EE903A03F58062D4ED4B7AD5ED4B5A20
:104B0000C2F30B0206EB820292ED004A68EEA77A2E
:104B1000C3F30B0306EB830393ED003AE5EE897ACA
:104B200067EE045A27EE037AE3EE665AA6EE847A1D
:104B300075EEA96AF0EE673ACAEEA67AF0EE485A28
:104B400064EEA76A27EE277AE6EE885AF0EE4A7AF4
:104B5000E7EE087ABDEEE57AFDEEE77A17EE101A79
:104B600025EE047A17EE900AA3EE637A65EE037AD7
:104B700037EE297AE3EE847ACAEE876AB0EE4A7A93
:104B800067EEA67AA7EE887AFDEEC77A95ED4D7AA4
:104B900017EE902AF0EE467AE7EE097AB0EE487A00
:104BA00077EECB7A67EEA67AA7EE887AFDEEC77A23
:104BB00017EE903AFEF742F994ED407AD5ED407A3F
:104BC00095ED436AD4ED416AD5ED3F5A28EE877AD8
:104BD00068EEA66AA7EE897AD4ED437A68EEA77AE2
:104BE000E6EE097A95ED416AB0EE675AD4ED447A63
:104BF000E6EE096A28EEA76AD7ED007AF8EE677A42
:104C000076EECB4A67EE8C7AD4ED3F6A67EEAB7AEC
:104C100068EEA66AFDEEE77AE5EE896A17EE903A4D
:104C200003F58062D4ED427AD5ED425AC2F30B020D
:104C300006EB820292ED004A68EEA77AC3F30B03FB
:104C400006EB830393ED003AE5EE897A67EE045AAA
:104C500027EE037AE3EE665AA6EE847A75EEA96A29
:104C6000F0EE673ACAEEA67AF0EE485A64EEA76A0A
:104C700027EE277AE6EE885AF0EE4A7AE7EE087ACF
:104C8000BDEEE57AFDEEE77A17EE101A25EE047A0E
:104C900017EE900AA3EE637A65EE037A37EE297A6F
:104CA000E3EE847ACAEE876AB0EE4A7A67EEA67AB5
:104CB000A7EE887AFDEEC77A95ED447A17EE902A32
:104CC000F0EE467AE7EE097AB0EE487A77EECB7AE4
:104CD00067EEA67AA7EE887AFDEEC77A17EE903ACD
:104CE000FEF7ACF894ED4C7AD5ED4C7A95ED4F6A21
:104CF000D4ED4D6AD5ED4B5A28EE877A68EEA66A58
:104D0000A7EE897AD4ED4F7A68EEA77AE6EE097AB3
:104D100095ED4D6AB0EE675AD4ED507AE6EE096A29
:104D200028EEA76AD7ED007AF8EE677A76EECB4ADE
:104D300067EE8C7AD4ED4B6A67EEAB7A68EEA66AC2
:104D4000FDEEE77AE5EE896A17EE903A03F58062A8
:104D5000D4ED4E7AD5ED4E5AC2F30B0206EB820229
:104D600092ED004A68EEA77AC3F30B0306EB8303C8
:104D700093ED003AE5EE897A67EE045A27EE037A5E
:104D8000E3EE665AA6EE847A75EEA96AF0EE673A0B
:104D9000CAEEA67AF0EE485A64EEA76A27EE277AA2
:104DA000E6EE885AF0EE4A7AE7EE087ABDEEE57A4A
:104DB000FDEEE77A17EE101A25EE047A17EE900A48
:104DC000A3EE637A65EE037A37EE297AE3EE847A0E
:104DD000CAEE876AB0EE4A7A67EEA67AA7EE887ABC
:104DE000FDEEC77A95ED507A17EE902AF0EE467AEE
:104DF000E7EE097AB0EE487A77EECB7A67EEA67ADC
:104E0000A7EE887AFDEEC77A17EE903AFEF716F80D
:104E100094ED527AD5ED527AD5ED515AD4ED536ACC
:104E200095ED536A28EE877A68EEA66AA7EE897A2E
:104E3000D4ED517A68EEA77AE6EE096AE5EE897A52
:104E400076EECB6AF0EE674AD7ED007AF8EE677A35
:104E500067EE8C7A67EEAB7AFDEEE77A17EE903A62
:104E600003F58062C2F30B0206EB820292ED005A58
:104E7000C3F30B0306EB8303D3ED007A25EE2C6A14
:104E8000A7EEED6A36EE296ACAEE865A27EE056A63
:104E900027EE277AA7EEE46A67EEAC7A36EE296A47
:104EA000A4EE857AE5EE2D7A8AEE865A67EEA57A2B
:104EB000B0EE4A6A65EE8D5AA7EE886AF0EE487A3F
:104EC000E5EE887ABDEEC66AFDEEE77A27EE057A52
:104ED00066EE856A16EE100A17EE901AB0EE4A6A70
:104EE000F0EE487AA7EE086AE6EE887ABDEEC67A5A
:104EF000FDEEE77A17EE102A17EE903AFDF79EFFC7
:104F0000D4ED5B7A95ED5B7A94ED5A6AD5ED5A6AE9
:104F100068EEA77A28EE866AE7EE097A94ED5C7A65
:104F2000F0EE674A28EE877AD5ED5C7AA7EE897AAB
:104F3000D7ED007AF8EE677AA6EE896A67EE8C7A8A
:104F400037EE4B7A67EEAB7AB0EE4A4AFDEEE77A7F
:104F500017EE903A03F58062C2F30B0206EB820271
:104F600092ED005AC3F30B0306EB8303D3ED005A13
:104F700065EE2C6A65EEACCAE5EEED6AE5EE2DCA8B
:104F800076EEA96ACAEEA67A64EE856A27EE8DDA15
:104F90006CEEA7CAF0EE487AEDEE087AE5EEC66A46
:104FA000FDEEE77A76EEA96A17EE901A64EEA57A1E
:104FB000ACEE884AE6EE057A8AEEA66AF0EE4A6A18
:104FC00067EE867A27EE067AE7EE886AF0EE487A90
:104FD000E7EE087ABDEEC47AFDEEE77A17EE100A26
:104FE000BDEEE67A17EE903A17EE102AFDF726FF8F
:104FF00094ED556AD5ED555AD4ED516A94ED527A37
:10500000D5ED527A94ED545AD5ED544A28EE866A7D
:1050100068EEA66AA5EE896AD5ED515A28EE877A20
:10502000E5EE896AA7EE897AD4ED537AD4ED565A23
:10503000F0EE663A68EEA77AD5ED536AE6EE897A25
:1050400028EE855A77EECB6AD7ED007AF8EE677ACC
:10505000A4EE895A67EE8C7AD5ED564A67EEAB7AA4
:1050600068EEA55AFDEEE77AE4EE895A17EE903A1B
:1050700003F58062C2F30B0206EB820292ED004A56
:10508000C3F30B0306EB8303D3ED004A67EE047A08
:1050900027EE247AE4EEE37AA3EE847A77EEA97A17
:1050A00075EECB5ACAEEA73A66EEA37A27EE237ABC
:1050B000F0EE483AE7EE883AF0EE4A6AFDEEE37A1F
:1050C000E7EE086A17EE901A66EE047A26EE246A76
:1050D000E4EEC57AA5EE046A77EEA97AFDEEE66AFB
:1050E0008AEEA77AF0EE487A26EE076A65EE875ACE
:1050F000B0EE4A7AA6EE087AE5EE887ABDEEC77A77
:10510000FDEEE77A16EE900A17EE102A17EE903AA7
:10511000FDF794FE94ED5E6AD5ED5E5AD4ED5A6AC1
:1051200094ED5B7AD5ED5B7A94ED5D5AD5ED5D4AF1
:1051300028EE866A68EEA66AA5EE896AD5ED5A5A07
:1051400028EE877AE5EE896AA7EE897AD4ED5C7A53
:10515000D4ED5F5AF0EE663A68EEA77AD5ED5C6A58
:10516000E6EE897A28EE855A77EECB6AD7ED007A9B
:10517000F8EE677AA4EE895A67EE8C7AD5ED5F4A2D
:1051800067EEAB7A68EEA55AFDEEE77AE4EE895A4F
:1051900017EE903A03F58062C2F30B0206EB82022F
:1051A00092ED004AC3F30B0306EB8303D3ED004AF1
:1051B00067EE047A27EE247AE4EEE37AA3EE847AAB
:1051C00077EEA97A75EECB5ACAEEA73A66EEA37AC5
:1051D00027EE237AF0EE483AE7EE883AF0EE4A6A94
:1051E000FDEEE37AE7EE086A17EE901A66EE047AAF
:1051F00026EE246AE4EEC57AA5EE046A77EEA97A73
:10520000FDEEE66A8AEEA77AF0EE487A26EE076AA5
:1052100065EE875AB0EE4A7AA6EE087AE5EE887A0D
:10522000BDEEC77AFDEEE77A16EE900A17EE102A69
:1052300017EE903AFDF702FE94ED586AD5ED585AF4
:10524000D4ED546A94ED557AD5ED557A94ED575ACC
:10525000D5ED574A28EE866A68EEA66AA5EE896AF9
:10526000D5ED545A28EE877AE5EE896AA7EE897A59
:10527000D4ED567AD4ED595AF0EE663A68EEA77A34
:10528000D5ED566AE6EE897A28EE855A77EECB6A36
:10529000D7ED007AF8EE677AA4EE895A67EE8C7A39
:1052A000D5ED594A67EEAB7A68EEA55AFDEEE77A7E
:1052B000E4EE895A17EE903A03F58062C2F30B02CE
:1052C00006EB820292ED004AC3F30B0306EB830365
:1052D000D3ED004A67EE047A27EE247AE4EEE37A0F
:1052E000A3EE847A77EEA97A75EECB5ACAEEA73A86
:1052F00066EEA37A27EE237AF0EE483AE7EE883A94
:10530000F0EE4A6AFDEEE37AE7EE086A17EE901ACD
:1053100066EE047A26EE246AE4EEC57AA5EE046A07
:1053200077EEA97AFDEEE66A8AEEA77AF0EE487A81
:1053300026EE076A65EE875AB0EE4A7AA6EE087A3C
:10534000E5EE887ABDEEC77AFDEEE77A16EE900AB2
:1053500017EE102A17EE903AFDF770FD94ED5E7A85
:10536000D5ED5E7A94ED5D4A94ED616AD5ED616AA2
:10537000D4ED604AD5ED605A94ED625A28EE877AF2
:1053800028EE844AA7EE897AD5ED5D7AA7EE894AA0
:10539000D7ED007AF8EE677A28EE866A67EE8C7AA7
:1053A000A6EE896A67EEAB7AD4ED5F6AFDEEE77A26
:1053B00068EEA44A17EE903A03F58062C2F30B023E
:1053C00006EB8202D2ED003AE5EE894AC3F30B0305
:1053D00006EB8303D5ED5F5A93ED003A68EEA66ABB
:1053E00068EE857AE5EE896A27EE235AD5ED625A92
:1053F000A3EE445AE5EE897A66EE035A26EE236A56
:1054000027EE037AA3EE646A35EE295AA4EE237AD6
:1054100036EE296A8AEE854A8AEE865AE4EEA35A67
:1054200076EECB6AF0EE484A66EE846A77EECB7A87
:10543000E6EE884A65EE856A27EE047AF0EE4A5A6F
:10544000E6EE885A67EE857AB0EE4A6AA7EE086AF9
:10545000B0EE487AA7EE887AFDEEE57A17EE902A4C
:10546000FDEEC77A17EE903AFDEEE47A17EE901A49
:10547000FDEEC67A17EE900AFDF7E0FCD7ED007A54
:105480009FED4B7A9FED4B5AF8EE677AF0EE483A73
:1054900067EE877A67EEAB7AFDEEE77A17EE903A21
:1054A000C3F30B0206EB8202D2ED007A67EE8B7A31
:1054B00003F5806377EEA96A39EEE77ACAEEA64A69
:1054C000C3F30B0306EB8306CAEE875A96ED007A08
:1054D00027EE0B7A24EE854A77EE296A79EEC79A91
:1054E0008AEEA66ACAEEA96AE4EE083A27EE653AA1
:1054F00027EE247AB0EE4A4AA7EE084A65EE855AAE
:10550000F0EE4A4AB0EE487AE3EE084AA5EE887A11
:10551000FDEEE35ABDEEC77A15EE901AFDEEC45AC1
:1055200066EE059A15EE900AFDEEE45A17EE103A73
:1055300015EE902A67EEA68A67EEC6AA26EE859A31
:10554000FDF7F6FCF0EE487AE9EE887AB0EE4A7A9A
:10555000A8EE88AAAAEE887AFDEEE77AA9EE088A74
:1055600017EE901AFDEECA7ABDEEC77A17EE902AB2
:10557000FDEEC87A17EE100A17EE903AFDF7D8FC48
:10558000FDF7B0FBD8ED007ADFED0B6A9FED0B7AEB
:1055900077EEA67ABDEC0C8BF4EEC77AF1EE10FA3A
:1055A000A8BF77EEC77AC8ED007ABDE8F08100BFEA
:1055B0000AD7233CCDCCCCBE191C953E0000C2427C
:1055C00010B59F4B9F4AA04C2DED028B1A60FDF742
:1055D000E3FA9E4B9E4AD3ED006ADFF888C2C2F818
:1055E00004C003F5805191ED006AC2F810C001F2C9
:1055F000FC7E01F6FC71D1ED003ADEED007ADFF8B9
:1056000068E2C2F81CC003F2FC71D1ED002AC2F8B6
:1056100028C003F5005003F6FC7191ED002A00F25A
:10562000FC71F2EE045A91ED004A8A4962EEA52A15
:1056300067EEA57A26EE256A24EE254A63EEA53AA2
:1056400022EE252A66EEA56A76EE270AC1F800E06A
:1056500082ED006A804982ED186A03F5405336EE08
:10566000226A00F6FC704FF0000EB6EE007AC2ED32
:10567000026AC2ED1A6AC2ED037AC2ED1B7AC2ED6C
:105680000B7A82ED082A82ED202A82ED094A82ED0A
:10569000214AC2ED063AC2ED1E3AC2ED052AC2ED1C
:1056A0001D2A51661167D167C2F8881084F800E09E
:1056B000C2ED237AD0ED004A82ED114A03F2FC706C
:1056C00003F6FC7326EE073A90ED005A93ED006A5C
:1056D00082ED294A25EE255A64EEA54A26EE256A72
:1056E00037EEA31A36EEA20A32EE828A73EE841ADD
:1056F00077EE827A82ED126A34EE242A82ED2A6AEB
:1057000035EE064A74EE855A32EE866A534B54489B
:10571000C2ED0C4A21EE071A61EE871A22EE072A23
:1057200065EE875A28EE078A60EE870A20EE070AA0
:1057300067EE877A24EE074A26EE076AC2F834C07D
:10574000C2ED0E3AC2ED244AC2F89410C2ED263AD8
:1057500082ED0F5AC2F840C082ED275AC2F8A0105D
:10576000C2F84CC0C2F858C0C2ED144AC2F8AC101E
:10577000C2ED2C4AC2ED152A82ED175AC2ED2D2A30
:10578000C2F8B81082ED2F5AC3ED000A596083EDBC
:10579000020AC3ED030A186183ED050A83ED088A46
:1057A00083ED0B8A83ED061AD96183ED091A98629D
:1057B000C3ED0C1A5963C3ED0E7AC3ED0F1A1864CA
:1057C000C3ED117A83ED122AD96483ED141A83EDA7
:1057D000152A986583ED171AC3ED185A5966C3ED5B
:1057E0001A1AC3ED1B5A1867C3ED1D1A83ED1E4A22
:1057F000D96783ED202A83ED214AC3F8880083ED21
:10580000232A83ED246AC3F89410C3ED265ABDEC15
:10581000028B76EE856A83ED276A66EE876AC3F8A7
:10582000A000C3ED295A83ED2A3AC3F8AC10C3EDAA
:105830002C6A83ED2D3AC3F8B800C3ED2F6A10BD72
:10584000001E002031300008D41F00206C400508E5
:10585000C41E0020901F002000008841041E00206C
:105860000000204200004842CDCCCC3D094A0A4904
:1058700010780A4B002818BF0B46094809490CBF8D
:105880004FF0010C4FF0000C82F800C000220260C3
:105890000B607047FC1D002031300008C13A000841
:1058A0008C1F0020001E002010B50D4C02F08AFD58
:1058B0002368C01A0F2811D90A4B1B6898470A4958
:1058C0000A4A0B680133A2FB03C240F64540520A64
:1058D00000FB12330B6002F075FD206010BD00BFAD
:1058E000F41D0020001E00208C1F002003B9BA29DF
:1058F000FEE700BFFEE700BFFEE700BFFEE700BF18
:10590000FEE700BF704700BF704700BF704700BF91
:105910002F4A136823F0070343F0030310B5136005
:10592000136803F00703032BFAD12A492A4B0A68AC
:1059300042F440420A601A6842F480321A601A68DF
:105940009003FCD558682549254A01400A435A600E
:105950005A68244922F440325A605868224A014069
:105960000A435A6019681C4A41F080711960136833
:105970009901FCD5174A53685B04FCD5164CA36803
:1059800023F0F003A360A36823F4E05343F48053AF
:10599000A360A36823F46043A360A36823F0030318
:1059A00043F00203A360A36803F00C03082BFAD1B1
:1059B0000E4802F083FA0F2002F0BAFC08B172B66A
:1059C000FEE7D4F88C3023F08073C4F88C3010BD1F
:1059D000003C024000700040003802400080BFFFE1
:1059E000193040000080BFF01930400400D8B805DD
:1059F00072B6FEE702F0DABC014800F021BD00BF3C
:105A00007430002082B00C4B002100915A6C42F49B
:105A100080425A645A6C02F480420092009A0191CA
:105A20001A6C42F080521A641B6C03F0805301938D
:105A3000019B02B0704700BF00380240034AD2F811
:105A4000883043F47003C2F88830704700ED00E0FE
:105A500008B518491848002202F0CCFC70B9174963
:105A6000154802F0DBFC88B91549134803F022FA07
:105A7000A0B9114802F0EEFCB8B908BDFFF7B8FFB5
:105A80000E490D4802F0CAFC0028EDD0FFF7B0FF28
:105A90000B49094803F00EFA0028EAD0FFF7A8FFE7
:105AA000054802F0D7FC0028E7D0BDE80840FFF722
:105AB0009FBF00BF400000203C290020E8000020DC
:105AC0005C000020122301480B8070472C0000204E
:105AD000042301480B8070472800002010B5044CB7
