:020000040800F2
:1000000000000220E96C00080D37000811370008D5
:1000100015370008193700081D37000800000000D8
:100020000000000000000000000000002137000870
:1000300025370008000000002937000811380008A3
:10004000396D0008396D0008396D0008396D0008F8
:10005000396D0008396D0008396D0008396D0008E8
:10006000396D0008396D0008396D0008396D0008D8
:1000700079160008396D0008396D0008396D0008DF
:10008000396D0008396D0008396D00080000000066
:10009000000000000000000000000000396D0008B2
:1000A000396D0008396D0008396D0008396D000898
:1000B000396D0008396D0008396D0008396D000888
:1000C000396D0008396D0008396D0008396D000878
:1000D000396D0008396D0008396D00080000000016
:1000E000396D0008396D0008396D00080000000006
:1000F000000000000000000000000000396D000852
:1001000000000000396D0008396D0008396D0008E5
:1001100000000000000000000000000000000000DF
:10012000396D0008396D0008396D0008312B000861
:10013000396D000800000000000000000000000011
:10014000000000000000000000000000153800085A
:10015000396D0008396D0008396D0008396D0008E7
:10016000396D0008396D0008000000000000000033
:10017000000000000000000000000000000000007F
:1001800000000000396D00080000000000000000C1
:08019000396D0008396D00080B
:1001A000034613F8012B002AFBD1181A01387047B7
:1001B00001F0FF01102A2BDB10F0070F08D010F818
:1001C000013B013A8B422DD010F0070F42B3F6D11C
:1001D000F0B441EA012141EA014122F007047FF035
:1001E00000070023F0E80256083C85EA010586EA8C
:1001F000010685FA47F5A3FA87F586FA47F6A5FAC8
:1002000087F68EB9EED1F0BC01F0FF0102F00702D3
:1002100032B110F8013B013A83EA010313B1F8D17E
:100220000020704701387047002D06BF354603385F
:10023000073815F0010F07D1013015F4807F02BF98
:10024000013015F4C03F0130F0BC0138704700BFE9
:1002500070B54FF0FF0C4CF4E06C1CEA11541DBF5C
:100260001CEA135594EA0C0F95EA0C0F00F0DEF827
:100270002C4481EA030621EA4C5123EA4C5350EA0C
:10028000013518BF52EA033541F4801143F480135D
:1002900038D0A0FB02CE4FF00005E1FB02E506F0EE
:1002A0000042E0FB03E54FF00006E1FB03569CF043
:1002B000000F18BF4EF0010EA4F1FF04B6F5007F49
:1002C00064F5407404D25FEA4E0E6D4146EB0606BB
:1002D00042EAC62141EA55514FEAC52040EA5E5044
:1002E0004FEACE2EB4F1FD0C88BFBCF5E06F1ED8EE
:1002F000BEF1004F08BF5FEA500E50F1000041EB25
:10030000045170BD06F0004646EA010140EA0200D1
:1003100081EA0301B4EB5C04C2BFD4EB0C0541EAF3
:10032000045170BD41F480114FF0000E013C00F308
:10033000AB8014F1360FDEBF002001F0004170BD2C
:10034000C4F10004203C35DA0C341BDC04F1140445
:10035000C4F1200500FA05F320FA04F001FA05F2D1
:1003600040EA020001F0004221F0004110EBD3709E
:1003700021FA04F642EB06015EEA430E08BF20EACA
:10038000D37070BDC4F10C04C4F1200500FA04F36D
:1003900020FA05F001FA04F240EA020001F00041FF
:1003A00010EBD37041F100015EEA430E08BF20EA72
:1003B000D37070BDC4F1200500FA05F24EEA020EBA
:1003C00020FA04F301FA05F243EA020321FA04F0E9
:1003D00001F0004121FA04F220EA020000EBD370A0
:1003E0005EEA430E08BF20EAD37070BD94F0000FA0
:1003F0000FD101F00046400041EB010111F4801FD4
:1004000008BF013CF7D041EA060195F0000F18BF84
:10041000704703F00046520043EB030313F4801FC0
:1004200008BF013DF7D043EA0603704794EA0C0F7A
:100430000CEA135518BF95EA0C0F0CD050EA410690
:1004400018BF52EA4306D1D181EA030101F000410D
:100450004FF0000070BD50EA410606BF1046194635
:1004600052EA430619D094EA0C0F02D150EA013641
:1004700013D195EA0C0F05D152EA03361CBF104682
:1004800019460AD181EA030101F0004141F0FE4121
:1004900041F470014FF0000070BD41F0FE4141F4A5
:1004A000780170BD81F0004102E000BF83F000439D
:1004B00030B54FEA41044FEA430594EA050F08BFFF
:1004C00090EA020F1FBF54EA000C55EA020C7FEAC3
:1004D000645C7FEA655C00F0E2804FEA5454D4EB40
:1004E0005555B8BF6D420CDD2C4480EA020281EA0A
:1004F000030382EA000083EA010180EA020281EA42
:100500000303362D88BF30BD11F0004F4FEA013193
:100510004FF4801C4CEA113102D0404261EB4101A2
:1005200013F0004F4FEA03334CEA133302D0524228
:1005300063EB430394EA050F00F0A780A4F10104E4
:10054000D5F1200E0DDB02FA0EFC22FA05F280181E
:1005500041F1000103FA0EF2801843FA05F3594104
:100560000EE0A5F120050EF1200E012A03FA0EFC83
:1005700028BF4CF0020C43FA05F3C01851EBE371AD
:1005800001F0004507D54FF0000EDCF1000C7EEBCA
:1005900000006EEB0101B1F5801F1BD3B1F5001F08
:1005A0000CD349085FEA30004FEA3C0C04F1010427
:1005B0004FEA445212F5800F80F09A80BCF1004F50
:1005C00008BF5FEA500C50F1000041EB045141EAD2
:1005D000050130BD5FEA4C0C404141EB0101013C9B
:1005E00028BFB1F5801FE9D291F0000F04BF01468A
:1005F0000020B1FA81F308BF2033A3F10B03B3F15C
:1006000020020CDA0C3208DD02F1140CC2F10C02EB
:1006100001FA0CF021FA02F10CE002F11402D8BF49
:10062000C2F1200C01FA02F120FA0CFCDCBF41EA15
:100630000C019040E41AA2BF01EB0451294330BDE4
:100640006FEA04041F3C1CDA0C340EDC04F11404C1
:10065000C4F1200220FA04F001FA02F340EA030098
:1006600021FA04F345EA030130BDC4F10C04C4F1DE
:10067000200220FA02F001FA04F340EA03002946BE
:1006800030BD21FA04F0294630BD94F0000F83F408
:10069000801306BF81F480110134013D4EE77FEAEB
:1006A000645C18BF7FEA655C29D094EA050F08BF37
:1006B00090EA020F05D054EA000C04BF1946104618
:1006C00030BD91EA030F1EBF0021002030BD5FEA5C
:1006D000545C05D14000494128BF41F0004130BD84
:1006E00014F580043CBF01F5801130BD01F00045D8
:1006F00045F0FE4141F470014FF0000030BD7FEA4B
:10070000645C1ABF194610467FEA655C1CBF0B4645
:10071000024650EA013406BF52EA033591EA030F5C
:1007200041F4002130BD00BF90F0000F04BF002154
:10073000704730B54FF4806404F132044FF0000587
:100740004FF0000150E700BF90F0000F04BF002100
:10075000704730B54FF4806404F1320410F0004566
:1007600048BF40424FF000013EE700BF42004FEA61
:10077000E2014FEA31014FEA02701FBF12F07F43DE
:1007800093F07F4F81F06051704732F07F4208BF95
:10079000704793F07F4F04BF41F40021704730B59C
:1007A0004FF4607401F0004521F000411CE700BFE8
:1007B00050EA010208BF704730B54FF000050AE06B
:1007C00050EA010208BF704730B511F0004502D56C
:1007D000404261EB41014FF4806404F132045FEA6E
:1007E000915C3FF4D8AE4FF003025FEADC0C18BF17
:1007F00003325FEADC0C18BF033202EBDC02C2F109
:10080000200300FA03FC20FA02F001FA03FE40EA9A
:100810000E0021FA02F11444BDE600BF4A0011D2D5
:1008200012F5001211D20DD56FF47873B3EB62524A
:100830000ED44FEAC12343F0004343EA505323FA56
:1008400002F070474FF00000704750EA013002D1CB
:100850004FF0FF3070474FF0000070474FEA410201
:10086000B2F1E04324BFB3F5001CDCF1FE5C0DD90E
:1008700001F0004C4FEAC0024CEA5070B2F1004F58
:1008800040EB830008BF20F00100704711F0804F5B
:1008900021D113F13872BCBF01F00040704741F420
:1008A00080114FEA5252C2F11802C2F1200C10FA24
:1008B0000CF320FA02F018BF40F001004FEAC12308
:1008C0004FEAD32303FA0CFC40EA0C0023FA02F3AC
:1008D0004FEA4303CCE77FEA625307D150EA013382
:1008E0001EBF4FF0FE4040F44000704701F0004052
:1008F00040F0FE4040F40000704700BF10B5054CCA
:10090000237833B9044B13B10448AFF300800123BB
:10091000237010BD7C01002000000000B47D0008A1
:1009200008B5034B1BB103490348AFF3008008BD72
:100930000000000080010020B47D000808B505F02B
:1009400029FC02F0F3FE0D490D4A0B6B43F08503C1
:100950000B63136823F0406343F08063136002F07D
:1009600085FF00F00DFA00F03FFD02F003FA00F001
:10097000A1FE00F01BFA02F0B3FAF8E700380240DB
:100980000008024010B50446007800F0F003902BF8
:1009900013D0B02B02D0802B1ED010BDA27861786E
:1009A00000F00F0001F076FE2078A278617800F068
:1009B0000F00BDE8104000F02FBBA278617800F076
:1009C0000F006AB901F084F82078617800F00F0018
:1009D000BDE8104000F0D4BA617800F00F00F1E7F4
:1009E00000F00EFF2078A278617800F00F00BDE8DB
:1009F000104000F08DBA00BF4B1E032B05D9B0F894
:100A0000012044F654039A4200D070472DE9F04F7C
:100A1000053989B000228BB2CDE90422CDE9062246
:100A200090F8039090F804800193002B00F09A80D6
:100A3000CDE9029806270526042503244FF0020E6F
:100A40004FF0010C114684E04FEAD2090DF1100875
:100A500002F0070B18F809A003F0010808FA0BF8D8
:100A600048EA0A080DF1100A0CF0070B0AF8098091
:100A70004FEADC09C3F340081AF809A008FA0BF89A
:100A800048EA0A080DF1100A0EF0070B0AF809806F
:100A90004FEADE09C3F380081AF809A008FA0BF838
:100AA00048EA0A080DF1100A04F0070B0AF8098059
:100AB0004FEAD409C3F3C0081AF809A008FA0BF8E2
:100AC00048EA0A080DF1100A05F0070B0AF8098038
:100AD0004FEAD509C3F300181AF809A008FA0BF871
:100AE00048EA0A080DF1100A06F0070B0AF8098017
:100AF0004FEAD609C3F340181AF809A008FA0BF810
:100B000048EA0A080DF1100AC3F380130AF80980B5
:100B10004FEAD70807F0070903FA09F31AF8089013
:100B200043EA09030AF80830019B07320CF1070C6D
:100B30000EF1070E0734073507360737994292B290
:100B40001FFA8CFC1FFA8EFEA4B2ADB2B6B2BFB2D1
:100B500006D0431801315B79F72BC9B27FF474AF2B
:100B6000DDE902984FEA5900092809F0010116D081
:100B7000B8F1050F07D89DED040A424609B0BDE85B
:100B8000F04F01F0D7B8B8F1060F05D1DDED047ACA
:100B90004246B8EEE70AF1E709B0BDE8F08FB8F1D8
:100BA000000FF9D19DED040A404609B0BDE8F04FB1
:100BB00001F068BD1B481C49026B1C4B42F48002CB
:100BC00042F0020210B40263426C42F480124264AA
:100BD0000A6822F4403242F400320A604A6A22F083
:100BE0000F024CF2243442F006024A621C601A687A
:100BF0000F49104C0888897842F040021A605A6800
:100C000042F002025A60234604F5A27218809970DD
:100C100003339342FAD10023A4F844315DF8044B26
:100C2000704700BF003802400004024000500140FD
:100C3000CC7D00089801002010B5C0F3072CC2B28B
:100C4000C0F307430CEB4C0C1248134C01EBC101F1
:100C50000CEB000E30F80CC024F801C021449EF8C3
:100C600002C081F802C002EB420202EB000C825A81
:100C7000A1F803209CF802204A7103EB43031A18E1
:100C8000C05A92780A7282B00023C880A4F8443116
:100C900002B010BD207E0008980100200D4B0E4AC6
:100CA0000E494FF4006010B4D8600D4CC3F8884072
:100CB0004FF4A370C3F88C00C3F89410C3F89020CD
:100CC000D3F888205DF8044B42F00102C3F8882075
:100CD000704700BF006402400C50014098010020A2
:100CE0004004020A38B5044648680D46FFF71CFD6B
:100CF0001F4B0022FFF7ACFAFFF790FD812898BF49
:100D00001C4B1D4ADFED1D6A94ED005AD4ED015ACB
:100D100094ED027A9CBF03EB800393ED006A2B787D
:100D200003EB430388BFB7EE006AD15C07EE901A6D
:100D3000F8EEE77A134467EE867AA7EEA65A84EDBA
:100D4000005A5A7807EE902AF8EEE77A67EE867A2C
:100D5000E7EEA65AC4ED015A9B7807EE903AF8EEFA
:100D6000E77A67EE867AA7EEA67A84ED027A38BD36
:100D70000000124074810008448100088180803B9B
:100D800008B5FFF717FF074B074803F5A261FF22DD
:100D90005A705A725A745A76186224338B42F7D1B9
:100DA00008BD00BFE4020020E50C00082DE9F04F6B
:100DB0002DED048BDFF850B187B005F011FADBF8A8
:100DC00000300190C31A142B04D807B0BDEC048B7B
:100DD000BDE8F08F494CDFF834819FED498A9FEDE3
:100DE000499AA4F12006F7EE008A04F5A269356A53
:100DF0008DED038A8DED048A8DED058AB246FF27BD
:100E00009AF80120FF2A514603A80AD0A8479AF869
:100E100002200AB98AF80170DAF804200132CAF80F
:100E200004200AF1080A5445EAD19DED037ADDED6C
:100E3000047ADDED056AB5EE006A27EE067A67EE04
:100E4000867AB4EEE87AF1EE10FA66EE866A4BDD49
:100E5000B0EE487A0022F4EEE87AF1EE10FA8DED69
:100E6000037A38DDF0EE487A0023F4EEE86AF1EE1A
:100E700010FACDED047A1CDD00218DF80A108DF8F2
:100E800008208DF8093018F8011F02988DED058AA9
:100E90002434FFF7D1FE4C4506F12406A7D1FFF715
:100EA000FDFE019BCBF8003007B0BDEC048BBDE824
:100EB000F08F66EE897A8DF80820FCEEE77A8DF8DF
:100EC000093017EE902A8DF80A2018F8011F0298B1
:100ED000CDED056ADCE727EE897ABCEEC77A8DEDA9
:100EE000007A9DF80030C0E727EE096ABCEEC66ABA
:100EF0008DED006A9DF80020ADE700BF04030020DF
:100F00000000000000004843E00200201F810008AC
:100F1000092826D0B1F13C0310B404D5B1F118036F
:100F200048BF01F10C03144CA4FB034C4FEADC0C4A
:100F30000CEBCC0C114CA3EB8C0303EBC30304EBC5
:100F400083035C78FF2C07D100245C605970187013
:100F50009A705DF8044B70475C7AFF2C02D108331D
:100F6000F2E770475C7CFF2C01D11033ECE75C7E2C
:100F7000FF2CEED11833E7E7398EE338E402002086
:100F8000092843D0B1F13C0310B404D5B1F11803E2
:100F900048BF01F10C031E4AA2FB0342D20802EB38
:100FA000C202A3EB82031B4C03EBC30304EB8302DB
:100FB0009B0092F801C0BCF1FF0F06D0E35C8342B6
:100FC00003D1614504BF00239370537AFF2B06D0F1
:100FD000147A844203D1994204BF00239372537C54
:100FE000FF2B06D0147C844203D1994204BF002316
:100FF0009374537EFF2B06D0147E844203D18B4220
:1010000004BF002393765DF8044B7047704700BF20
:10101000398EE338E4020020782902D07B2900D001
:101020007047124B002103F5A26C5A78FF2A03D0B7
:101030001A78824208BF99705A7AFF2A03D01A7A26
:10104000824208BF99725A7CFF2A03D01A7C8242DE
:1010500008BF99745A7EFF2A03D01A7E824208BFC5
:10106000997624339C45E0D1704700BFE40200200C
:101070002DE9F04FD24BDFF864E31B78D14ADEF85C
:101080000CA0DEF828B0DEF85C00DFEDCF5ADFED13
:10109000CF4A9FEDCF4ADFF848C3DFF84893DEED33
:1010A000066A9EED0D6A9EED145ADEED1B3ADEF8DF
:1010B0001010DEF82C40DEF848508FB000270C935B
:1010C0009B020D93043B02EB0308DEF814300493FB
:1010D000DEF808300593DEF830300693DEF8243071
:1010E0000793DEF844300193DEF84C300893DEF8C5
:1010F00040300993DEF860300A93DEF868300B93D5
:10110000DEF86460CDE902AB82469FEDB27AB24B65
:10111000BB463746186D1A6A5E6A93ED023AD3ED04
:101120000B2A00FB02F2C2F34B4206EB8206D6ED1D
:10113000007A5A6C67EE837A00FB02F267EEA57ABA
:101140005833FDEEE77A17EE906A06EB524653F8F5
:10115000102CC6F30B0602EB8602D2ED007A53F890
:10116000042C024443F8082C9C45A7EEA27AD1D166
:10117000029AB2EB112F3E464FEA11235F460ED37F
:10118000049A1144059ACEF81010D35C7F3B07EE09
:10119000903AF8EEE77A67EEA47AA7EEA67A039A79
:1011A000B2EB142F4FEA14230ED3069A1444079A75
:1011B000CEF82C40D35C7F3B07EE903AF8EEE77A0E
:1011C00067EEA47AA7EE867A019AB2EB152F4FEA62
:1011D00015230ED3089A1544099ACEF84850D35CCB
:1011E0007F3B07EE903AF8EEE77A67EEA47AA7EE37
:1011F000857A0A9AB2EB162F4FEA162328D30B9A58
:101200001644CEF864601AF803307F3B07EE903A3C
:10121000F8EEE77A013767EEA47AB7F5807FA7EE9C
:10122000A37A27EE047AFDEEC77A17EE903A03F51B
:10123000405339F8133048F8043F7FF466AF0C9BF5
:101240005F4AB3FA83F35B0913700FB0BDE8F08F08
:10125000DFED5F4A27EE247AFF2FBDEEC77ADDE986
:1012600002AB17EE103A03F5405307F1010239F8CB
:101270001330C8F80430E2D00C9BDFED535A9FEDD9
:10128000534A02EB032000F180404E4B0D9A013887
:1012900003EB800003F57F731A4490462F0A5646ED
:1012A0009FED4C7A4C4B0290B246186D1A6A5E6AFA
:1012B000D3ED023A93ED0B3A00FB02F2C2F34B423C
:1012C00006EB8206D6ED007A5A6C67EEA37A00FB35
:1012D00002F267EEA57A5833FDEEE77A17EE906AD0
:1012E00006EB524653F8102CC6F30B0602EB8602AF
:1012F000D2ED007A53F8042C024443F8082C9C45A4
:10130000A3EE277AD1D1BAEB112F029856464FEAB5
:1013100011230ED3049A1144059ACEF81010D35C11
:101320007F3B07EE903AF8EEE77A67EE847AA6EE16
:10133000A77ABBEB142F4FEA14230ED3069A14445A
:10134000079ACEF82C40D35C7F3B07EE903AF8EE3C
:10135000E77A67EE847AA6EE277A019BBB421FD319
:10136000089B1D44099BCEF84850DB5D7F3B07EE90
:10137000903AF8EEE77A67EE847AA5EE277A67EE80
:10138000247AFDEEE77A17EE903A03F5405339F8E8
:10139000133040F8043F40453FF451AF2F0A7FE738
:1013A00027EE247AFDEEC77A17EE903A03F5405304
:1013B00039F8133040F8043F80457FF471AF3EE7C1
:1013C000F8070020FC0700200000C0450000003D99
:1013D00000C03F44000000007014002000140020F2
:1013E000F0190020002602089649974A0B6B43F437
:1013F000001343F001032DE9F0410B630B6CDFF8A0
:101400007482924C43F001030B64136823F00C03C5
:1014100043F008031360136A23F0F0034FF0804792
:1014200043F01003136200264FF4D040102240F224
:10143000FF73B8613A62BE62FB6280233B6001F1D8
:1014400046414FF48073FB6001F5EA514FF400739D
:10145000C8F828107E4AC8F82C307E4BC8F83420D3
:10146000C8F83030D8F828307B4A43F01803C8F861
:1014700028307A4B16704FF07E5531464FF4B062EB
:1014800020461D6005F09DFD3146754E70223046A8
:1014900005F097FD734B744A7448A26400216262A0
:1014A000C4F8A020E267C4F8F820C4F8D420C4F837
:1014B0005021C4F82C21C4F8A821C4F88421C4F810
:1014C0000022C4F8DC21C4F85822C4F83422C4F83D
:1014D000B022C4F88C22C4F80823C4F8E422C4F86B
:1014E0006023C4F83C23C4F8B823C4F89423C4F898
:1014F0001024C4F8EC23C4F86824C4F84424C4F8C5
:10150000C024C4F89C24C4F81825C4F8F424C4F8F2
:101510007025C4F84C25B06070623064F06542F20A
:10152000107059605964C3F88410C3F8C410C3F82C
:101530000411C3F8441170613063F064B0661D603B
:101540001D64C3F88050C3F8C050C3F80051C3F8FD
:101550004051DA631A62DA671A66C3F8BC20C3F82E
:10156000A020C3F8FC20C3F8E020C3F83C21C3F856
:101570002021C3F87C21C3F86021C3F8BC21C3F843
:10158000A021C3F88411C3F8C411C3F80412C3F82E
:101590004412C3F88412C3F8C412C3F80413C3F886
:1015A0004413C3F88051C3F8C051C3F80052C3F8C4
:1015B0004052C3F88052C3F8C052C3F80053C3F876
:1015C0004053C3F8FC21C3F8E021C3F83C22C3F820
:1015D0002022C3F87C22C3F86022C3F8BC22C3F8DF
:1015E000A022C3F8FC22C3F8E022C3F83C23C3F8CE
:1015F0002023C3F87C23C3F86023C3F8BC23C3F8BB
:10160000A023C3F88053C3F88413C3F8C413C3F8EA
:10161000C053C3F8FC23C3F8E023FFF729FDFFF70D
:1016200027FD134B4FF480521A60D8F8283043F04E
:101630000103C8F828303B6843F001033B60BDE874
:10164000F08100BF0038024000000240701400200A
:10165000FC07002038000040F8070020FC130020A1
:1016600000140020FC0F00207C6804087C83000824
:1016700000E100E00060024008B50D4B1A6851051A
:1016800004D40B4B1A6812050AD408BD9A6842F4B8
:1016900080629A60FFF7ECFC054B1A681205F4D5DE
:1016A0009A6842F400629A60BDE80840FFF7E0BC27
:1016B0000060024070B54F4C04F092FD2368C31ADD
:1016C000022B00D870BD4C4B9FED4C6A4FF0000EC2
:1016D00003F5B0610326022593F82820D3ED027AA2
:1016E000042A11D8DFE802F0124B3B7B030093ED94
:1016F000077A77EEC77AF5EEC07AF1EE10FA9CBF62
:10170000DFED3E7A83F828E0C3ED027A93F84C20AF
:10171000D3ED0B7A042A06D8DFE802F00751410323
:101720001500D3ED0F7AC3ED0B7A1A7932B1F5EECD
:10173000407AF1EE10FA01D183F804E058338B427D
:10174000CAD1206070BD93ED107A77EEC77AF5EEBE
:10175000C07AF1EE10FA45D9C3ED0B7AEEE7D3ED7E
:10176000056A93ED067A77EEE67AF4EEC77AF1EE43
:1017700010FAC9D8F0EE477A83F82860C4E7D3EDB1
:10178000046A93ED037A77EEA67AF4EEC77AF1EE67
:1017900010FAB9DBF0EE477A83F82850B4E7D3EDBE
:1017A0000E6A93ED0F7A77EEE67AF4EEC77AF1EEF1
:1017B00010FAB8D8F0EE477A83F84C60B3E7D3ED6F
:1017C0000D6A93ED0C7A77EEA67AF4EEC77AF1EE15
:1017D00010FAA8DBF0EE477A83F84C50A3E7D3ED7C
:1017E000067A91E71A7983F84CE083ED0B6A002AB8
:1017F000A2D1A3E7F407002070140020000000002D
:101800002DE9F0432DED028B83B009280D4601929E
:1018100062D0064604F0E4FC9C4B002703F5B06858
:10182000BC46B9469E4608E0624528BF9E4603F185
:10183000580328BF9446434512D01A791C46A2B1DA
:1018400093F84C101A680429A0EB0202ECD1BA42BA
:1018500028BF994603F1580328BF17464345ECD1EA
:10186000B9F1000F14BF4C467446894B03EB861C3C
:10187000884B0CF1080803EB850393ED008AB8E868
:101880000F0004F10C0EAEE80F0098E807000CF111
:10189000240C8EE80700BCE80F0004F130070FC7E6
:1018A0009CE8070087E8070004F09AFCDFED7A7AED
:1018B000206068EE277A0123FCEEE77AA671657155
:1018C00084F84C3084F828302371C4ED157A03B0C5
:1018D000BDEC028BBDE8F08304F082FC6F4BD3E9D2
:1018E0000321B2EB112FC0F0B9801A791E68AA4209
:1018F0000CBF1C460024D3E90A21B2EB112FA0EB48
:101900000606C0F0BE80DA6993F82070821A03F1EF
:101910001C01AF4208BF0C46964288BF3246D3E94D
:10192000116788BF1946B6EB172FC0F0AD809E6BCC
:101930005B4F93F83CC0861BAC4508BF3C46B242A7
:101940008CBF16463946D3E91827B2EB172F57D369
:1019500093F85820AA4253D05B6DC01A514BB04245
:1019600028BF1946002C08BF0C4604F039FC0023A0
:101970002E2DC4E904332060257112D8282D41D9B9
:10198000A5F12902D2B20123934013F0150F17D10C
:1019900013F00A0F64D1444A43F6FF73C4E90223EB
:1019A00013E0A5F12F03DBB20C2B5FD8012202FA62
:1019B00003F340F2245213425DD113F00B0F43D0D6
:1019C0003A4A41F6FF73C4E90223DDED017ADFED07
:1019D000386A384B2E4AF8EEE77A87EEA67AD3EDCE
:1019E000007AD2ED906A67EE277AC22367EEA67A74
:1019F0006361C4ED067A03B0BDEC028BBDE8F083F1
:101A0000284CB2E7233DEBB2052B2FD8052D2DD85E
:101A100001A353F825F000BF3D1A00083D1A000845
:101A2000CB190008311A00086D1A0008311A000895
:101A3000214A41F2A333C4E90223C6E71F4A41F613
:101A4000FF73C4E90223C0E741F2100213420DD034
:101A50001B4A47F6FF73C4E90223B6E71C4684E736
:101A6000184A41F27F63C4E90223AEE7164A002315
:101A7000C4E90223A9E7154A47F65A03C4E9022339
:101A8000A3E703F11C0470E7054C6EE77014002017
:101A9000FC0F002000A60308FCF4B245001400204F
:101AA0003814002054140020DC9B010880830008B7
:101AB0000000FE42FC1300205C1202085CF20108E8
:101AC00080A30008DCDB01087C8300088023010878
:101AD00009287DD0964B1A791AB15A798A4200F0BA
:101AE000828093F85C2022B193F85D208A4200F056
:101AF000848093F8B42022B193F8B5208A4200F094
:101B0000878093F80C2122B193F80D218A4200F0CE
:101B10008A8093F8642122B193F865218A4200F00B
:101B20008D8093F8BC2122B193F8BD218A4200F048
:101B3000908093F8142222B193F815228A4200F083
:101B4000938093F86C2222B193F86D228A4200F0C0
:101B5000968093F8C42222B193F8C5228A4200F0FD
:101B6000998093F81C2322B193F81D238A4200F038
:101B70009C8093F8742322B193F875238A4200F075
:101B80009F8093F8CC2322B193F8CD238A4200F0B2
:101B9000A28093F8242422B193F825248A4200F0ED
:101BA000A58093F87C2422B193F87D248A4200F02A
:101BB000A88093F8D42422B193F8D5248A4200F067
:101BC000AB8093F82C251AB193F82D258A4200D0CA
:101BD000704793F82E258242FAD1042283F87425A7
:101BE00083F85025F4E79A7982427FF47AAF042291
:101BF00083F84C2083F8282073E793F85E20824214
:101C00007FF477AF042283F8A42083F8802070E764
:101C100093F8B62082427FF474AF042283F8FC204C
:101C200083F8D8206DE793F80E2182427FF471AFDC
:101C3000042283F8542183F830216AE793F866215F
:101C400082427FF46EAF042283F8AC2183F88821AE
:101C500067E793F8BE2182427FF46BAF042283F8DA
:101C6000042283F8E02164E793F8162282427FF48D
:101C700068AF042283F85C2283F8382261E793F886
:101C80006E2282427FF465AF042283F8B42283F887
:101C900090225EE793F8C62282427FF462AF04226C
:101CA00083F80C2383F8E8225BE793F81E23824233
:101CB0007FF45FAF042283F8642383F8402358E75E
:101CC00093F8762382427FF45CAF042283F8BC232E
:101CD00083F8982355E793F8CE2382427FF459AFD7
:101CE000042283F8142483F8F02352E793F826247F
:101CF00082427FF456AF042283F86C2483F8482490
:101D00004FE793F87E2482427FF453AF042283F896
:101D1000C42483F8A0244CE793F8D62482427FF4AD
:101D200050AF042283F81C2583F8F82449E700BF4C
:101D3000701400207E4B00B503EB801C81B90CF1C0
:101D4000240E062A0AD8DFE812F007002E003C0015
:101D50004B024A00580021008EED000A5DF804FB9A
:101D60000CF1080E062AF9D801A353F822F000BF9F
:101D7000591D0008A71D0008C31D00087720000892
:101D8000DF1D0008451F00088D1D0008BDEEC00ABC
:101D900010EE102A032A00F2A483DFE812F09F035A
:101DA00098039103D5029FED637ADFED637ADFED4F
:101DB000636AE0EE077A86EEA77A8EED017A5DF827
:101DC00004FB9FED5C7ADFED5C7ADFED5C6AE0EEB0
:101DD000077A86EEA77A8EED027A5DF804FB9FED16
:101DE000557ADFED557ADFED556AE0EE077A86EE3B
:101DF000A77A8EED047A5DF804FB30EE000A504BB2
:101E0000FCEEC07A1979CEED057A17EE902A19B159
:101E10009979814208BF5A6493F85C1029B193F80C
:101E20005E10814208BFC3F89C2093F8B41029B11A
:101E300093F8B610814208BFC3F8F42093F80C1150
:101E400029B193F80E11814208BFC3F84C2193F8D1
:101E5000641129B193F86611814208BFC3F8A42127
:101E600093F8BC1129B193F8BE11814208BFC3F8A1
:101E7000FC2193F8141229B193F81612814208BF7D
:101E8000C3F8542293F86C1229B193F86E12814270
:101E900008BFC3F8AC2293F8C41229B193F8C61254
:101EA000814208BFC3F8042393F81C1329B193F8A7
:101EB0001E13814208BFC3F85C2393F8741329B141
:101EC00093F87613814208BFC3F8B42393F8CC1378
:101ED00029B193F8CE13814208BFC3F80C2493F8BC
:101EE000241429B193F82614814208BFC3F864244E
:101EF00093F87C1429B193F87E14814208BFC3F88B
:101F0000BC2493F8D41429B193F8D614814208BFA5
:101F1000C3F8142593F82C1500293FF41FAF93F84C
:101F20002E1581427FF41AAFC3F86C2516E700BF67
:101F3000FC0F00203333B33F17B7D1386F12033B88
:101F40007014002030EE000AA44BFCEEC07A197920
:101F5000CEED057A17EE902A19B19979814208BF22
:101F60001A6293F85C1021B193F85E10814208BFA9
:101F70009A6793F8B41029B193F8B610814208BF5C
:101F8000C3F8D02093F80C1129B193F80E118142B7
:101F900008BFC3F8282193F8641129B193F866119A
:101FA000814208BFC3F8802193F8BC1129B193F88E
:101FB000BE11814208BFC3F8D82193F8141229B189
:101FC00093F81612814208BFC3F8302293F86C12BE
:101FD00029B193F86E12814208BFC3F8882293F8A2
:101FE000C41229B193F8C612814208BFC3F8E02297
:101FF00093F81C1329B193F81E13814208BFC3F84C
:10200000382393F8741329B193F87613814208BFEB
:10201000C3F8902393F8CC1329B193F8CE138142DF
:1020200008BFC3F8E82393F8241429B193F82614C1
:10203000814208BFC3F8402493F87C1429B193F877
:102040007E14814208BFC3F8982493F8D41429B1B0
:1020500093F8D614814208BFC3F8F02493F82C15E6
:1020600000293FF47BAE93F82E1581427FF476AEC3
:10207000C3F8482572E6594B8CED050A1A792AB146
:102080009A79824204BF10EE102A9A6193F85C207C
:1020900032B193F85E20824204BF10EE102A1A6714
:1020A00093F8B4203AB193F8B620824204BF10EE00
:1020B000102AC3F8C82093F80C213AB193F80E21E6
:1020C000824204BF10EE102AC3F8202193F8642145
:1020D0003AB193F86621824204BF10EE102AC3F889
:1020E000782193F8BC213AB193F8BE21824204BF13
:1020F00010EE102AC3F8D02193F814223AB193F8C5
:102100001622824204BF10EE102AC3F8282293F848
:102110006C223AB193F86E22824204BF10EE102A6C
:10212000C3F8802293F8C4223AB193F8C6228242BF
:1021300004BF10EE102AC3F8D82293F81C233AB13A
:1021400093F81E23824204BF10EE102AC3F83023F6
:1021500093F874233AB193F87623824204BF10EEC9
:10216000102AC3F8882393F8CC233AB193F8CE23EE
:10217000824204BF10EE102AC3F8E02393F824240F
:102180003AB193F82624824204BF10EE102AC3F815
:10219000382493F87C243AB193F87E24824204BF19
:1021A00010EE102AC3F8902493F8D4243AB193F88F
:1021B000D624824204BF10EE102AC3F8E82493F814
:1021C0002C25002A3FF4CAAD93F82E2582427FF4D5
:1021D000C5AD10EE102AC3F84025BFE570140020ED
:1021E000B54B8CED0C0A1A792AB19A79824204BF58
:1021F00010EE102ADA6393F85C203AB193F85E206F
:10220000824204BF10EE102AC3F8942093F8B42041
:102210003AB193F8B620824204BF10EE102AC3F8F8
:10222000EC2093F80C213AB193F80E21824204BFBE
:1022300010EE102AC3F8442193F864213AB193F8C0
:102240006621824204BF10EE102AC3F89C2193F845
:10225000BC213AB193F8BE21824204BF10EE102A8D
:10226000C3F8F42193F814223AB193F8162282426B
:1022700004BF10EE102AC3F84C2293F86C223AB136
:1022800093F86E22824204BF10EE102AC3F8A422F3
:1022900093F8C4223AB193F8C622824204BF10EEEA
:1022A000102AC3F8FC2293F81C233AB193F81E239A
:1022B000824204BF10EE102AC3F8542393F874230B
:1022C0003AB193F87623824204BF10EE102AC3F885
:1022D000AC2393F8CC233AB193F8CE23824204BFC7
:1022E00010EE102AC3F8042493F824243AB193F88A
:1022F0002624824204BF10EE102AC3F85C2493F80F
:102300007C243AB193F87E24824204BF10EE102A56
:10231000C3F8B42493F8D4243AB193F8D624824273
:1023200004BF10EE102AC3F80C2593F82C25002AC0
:102330003FF414AD93F82E2582427FF40FAD10EEDA
:10234000102AC3F8642509E5002900F080815B4B61
:10235000CEF81830584B1A792AB19A79824204BFC4
:10236000DEF818205A6293F85C2032B193F85E20B0
:10237000824204BFDEF81820DA6793F8B4203AB13D
:1023800093F8B620824204BFDEF81820C3F8D420A8
:1023900093F80C213AB193F80E21824204BFDEF883
:1023A0001820C3F82C2193F864213AB193F86621E0
:1023B000824204BFDEF81820C3F8842193F8BC21C0
:1023C0003AB193F8BE21824204BFDEF81820C3F868
:1023D000DC2193F814223AB193F81622824204BF0A
:1023E000DEF81820C3F8342293F86C223AB193F83F
:1023F0006E22824204BFDEF81820C3F88C2293F8C4
:10240000C4223AB193F8C622824204BFDEF81820F3
:10241000C3F8E42293F81C233AB193F81E238242B6
:1024200004BFDEF81820C3F83C2393F874233AB1B4
:1024300093F87623824204BFDEF81820C3F8942371
:1024400093F8CC233AB193F8CE23824204BFDEF84E
:102450001820C3F8EC2393F824243AB193F82624E7
:10246000824204BFDEF81820C3F8442493F87C2489
:102470003AB193F87E24824204BFDEF81820C3F8F4
:102480009C2493F8D4243AB193F8D624824204BF12
:10249000DEF81820C3F8F42493F82C25002A3FF422
:1024A0005DAC93F82E2582427FF458ACDEF81820FC
:1024B000C3F84C2552E400BF7014002000A80308A4
:1024C000002900F0C880684BCEF8183042E7002998
:1024D00000F0C580654BCEF818303BE7644BCEF872
:1024E000183000297FF436AF624B1A792AB19A79F5
:1024F000824204BFDEF818209A6493F85C203AB157
:1025000093F85E20824204BFDEF81820C3F8A020B2
:1025100093F8B4203AB193F8B620824204BFDEF8B3
:102520001820C3F8F82093F80C213AB193F80E2143
:10253000824204BFDEF81820C3F8502193F86421CA
:102540003AB193F86621824204BFDEF81820C3F83E
:10255000A82193F8BC213AB193F8BE21824204BF6E
:10256000DEF81820C3F8002293F814223AB193F849
:102570001622824204BFDEF81820C3F8582293F8CE
:102580006C223AB193F86E22824204BFDEF8182022
:10259000C3F8B02293F8C4223AB193F8C62282421B
:1025A00004BFDEF81820C3F8082393F81C233AB1BF
:1025B00093F81E23824204BFDEF81820C3F860237C
:1025C00093F874233AB193F87623824204BFDEF87D
:1025D0001820C3F8B82393F8CC233AB193F8CE234C
:1025E000824204BFDEF81820C3F8102493F8242494
:1025F0003AB193F82624824204BFDEF81820C3F8CB
:10260000682493F87C243AB193F87E24824204BF74
:10261000DEF81820C3F8C02493F8D4243AB193F814
:10262000D624824204BFDEF81820C3F8182593F898
:102630002C25002A3FF492AB93F82E2582427FF49A
:102640008DABDEF81820C3F87025FFF787BB0A4B67
:10265000CEF8183048E7094BCEF8183044E7084B5D
:10266000CEF8183040E700BF00E80308002804084F
:102670007C6804087014002000E6020800260308A5
:102680000066030810B9024B83ED000A704700BFD3
:10269000FC13002082B07829019214D07B2912D03B
:1026A000072901D002B0704707EE902ADFED7C6A5F
:1026B0007C4BF8EEE77A03EB801387EEA67A83ED86
:1026C000007A02B07047784B9A79824200F0DD8040
:1026D00093F85E20824200F0CD8093F8B6208242CB
:1026E00000F0BD8093F80E21824200F0AD8093F897
:1026F0006621824200F09D8093F8BE21824200F064
:102700008D8093F8162282427DD093F86E22824209
:102710006FD093F8C622824261D093F81E23824282
:1027200053D093F87623824245D093F8CE23824249
:1027300037D093F82624824229D093F87E2482420F
:102740001BD093F8D62482420DD093F82E258242D6
:10275000A8D193F82C25002AA4D0042283F874254C
:1027600083F850259EE793F8D424002AEDD0042264
:1027700083F81C2583F8F824E7E793F87C24002AE3
:10278000DFD0042283F8C42483F8A024D9E793F887
:102790002424002AD1D0042283F86C2483F848240E
:1027A000CBE793F8CC23002AC3D0042283F8142467
:1027B00083F8F023BDE793F87423002AB5D00422F0
:1027C00083F8BC2383F89823AFE793F81C23002AEF
:1027D000A7D0042283F8642383F84023A1E793F869
:1027E000C422002A99D0042283F80C2383F8E8221B
:1027F00093E793F86C22002A8BD0042283F8B4224A
:1028000083F8902285E793F81422002A3FF47DAFE5
:10281000042283F85C2283F8382276E793F8BC21FF
:10282000002A3FF46EAF042283F8042283F8E021EB
:1028300067E793F86421002A3FF45EAF042283F82F
:10284000AC2183F8882157E793F80C21002A3FF444
:102850004EAF042283F8542183F8302147E793F8E0
:10286000B420002A3FF43EAF042283F8FC2083F812
:10287000D82037E793F85C20002A3FF42EAF0422DB
:1028800083F8A42083F8802027E71A79002A3FF4F0
:102890001FAF042283F84C2083F8282018E700BFDC
:1028A0000000FE42FC0F00207014002000220A48A5
:1028B000114650F83230A3F58063002B02F101027B
:1028C000B8BF5B42B2F5807F1944F2D100EE101A16
:1028D000BAEEC80A704700BFFC070020474938B568
:1028E0000B6B474D474C43F4800343F001030B63EC
:1028F0004B6C43F480534B642B68434923F440638F
:1029000043F400632B602B6823F4404343F40043FB
:102910002B602B6823F0C00343F040032B602B682F
:1029200023F4407343F480732B602B6823F44053EB
:1029300043F480532B602B6A23F4700343F4A00309
:102940002B622B6A23F070434FF4457243F0A0438F
:102950002B62226022682D4B42F0400222604FF42D
:10296000806099652A4A2B49D86559661A669A6D1E
:1029700042F010029A65284B4FF000625A606B6972
:1029800023F0080301206B6103F030FC6B69234ADC
:1029900043F008036B616B6923F040036B616B6963
:1029A00023F0100302F11A006B6112F8013FE3609B
:1029B000A3689B07FCD5A16811F08001FBD182427E
:1029C000F3D10F4C164862690E4B42F0400262612F
:1029D00000F5806400F8011FD9609A689507FCD55E
:1029E0009A681206FCD4A042F4D1054A0D495369F5
:1029F000012043F010035361087038BD00380240D5
:102A00000000024000300140400400060064024023
:102A10000C300140F419002000E100E0FF670408D9
:102A2000F3190020F01900203B4A137803B9FEE7A0
:102A30003A4B002110B411705969394A21F0400114
:102A400059615969202021F010015961D0609368C3
:102A50009907FCD5324A936813F08003FBD13049C3
:102A6000D3608B689A07FCD52D4A93681B06FCD46B
:102A700021232B49D3608B689C07FCD5284A936897
:102A800013F08003FBD12649D3608B689807FCD5EF
:102A9000234A93681906FCD47F232149D3608B68AD
:102AA0009A07FCD51E4A93681B06FCD422231C49B6
:102AB000D3608B689C07FCD5194A936813F0800398
:102AC000FBD11749D3608B689807FCD5144A9368EB
:102AD0001906FCD407231249D3608B689A07FCD5EA
:102AE0000F4A93681B06FCD40C480E4B41690E4CF0
:102AF00041F040014161516841F0020151604FF4E1
:102B000080600A4AD8655C661A669A6D5DF8044B67
:102B100042F001029A657047F0190020000002405F
:102B20000030014000640240F41900200C300140E4
:102B300008B50E4B1A68120100D408BD9A680C49FA
:102B40000C4842F000629A604B680B4A23F0020383
:102B50004B60536943F01003536100214FF48062CE
:102B600004F02FFA054B01221A7008BD00640240E0
:102B700000300140F419002000000240F01900204C
:102B8000F0B5A3EB010E141A84EAE4758EEAEE7632
:102B9000A5EBE475A6EBEE76B54227DABEF1000FA1
:102BA000B4BF4FF0FF3501258B424FEA042E4FEAA8
:102BB00000209EFBF6FE18D02D4F01260A010412BC
:102BC00002F4786201F0070CB0F5004F2244704423
:102BD00006FA0CFC06D23F2904D8BC5C4CEA040C73
:102BE00007F802C029448B42E8D1F0BD002C4FEA1F
:102BF0000E2E4FEA01219EFBF5FE1DDB8242F4D032
:102C00001B4D01240B124FEA031C7F280CF4786C37
:102C100003F00703844404FA03F300F1010007D82A
:102C2000B1F5804F04D215F80C60334305F80C3031
:102C300090427144E6D1F0BD8242D6D00C4E0125BF
:102C40000B121C017F2804F4786403F0070304448A
:102C500005FA03F300F1FF3005D8B1F5804F02D239
:102C6000375D3B43335582427144E9D1F0BD00BF2B
:102C7000F4190020F0B5A3EB010E141A84EAE47CE9
:102C80008EEAEE75ACEBE47CA5EBEE75AC452BDA89
:102C9000BEF1000F4FEA042EB4BF4FF0FF34012401
:102CA0008B424FEA00209EFBF5FE1CD0304E0125E2
:102CB00011F0010F4FEA202C11D00A0102F47862C2
:102CC0006244B0F5004F01F0070C05FA0CFC06D287
:102CD0003F2904D8B75C4CEA070C06F802C021442F
:102CE0008B427044E4D1F0BD002C4FEA0E2E4FEA27
:102CF00001219EFBFCFE33DB8242F4D01C4D0124FB
:102D0000C30713D50B124FEA031C0CF4786C03F0C5
:102D100007037F28844404FA03F307D8B1F5804FF2
:102D200004D215F80C60334305F80C3001308242B0
:102D30007144E5D1F0BD0C12230103F478637F28C0
:102D40000B4E034404F0070408D8B1F5804F05D2B8
:102D5000F75C012505FA04F43C43F454013871444E
:102D60008242C0D0C407E6D401387144F8E700BFFE
:102D7000F419002010B5FFF7B1FD524A524B5349E8
:102D80000020107003F6980259602C339A42FBD150
:102D90004F4A504B92ED007A4F4850495860F2EE3E
:102DA000047A27EE277A02F5805CDCED006A83ED79
:102DB000027A0CF2FC7483ED1A7A94ED007A59666B
:102DC00066EEA76A0CF6FC7C27EE277A9CED005A8B
:102DD000C3ED006A02F2FC7C02F5005EC3ED186AE6
:102DE000DCED006A83ED037A02F6FC7C83ED1B7A4E
:102DF00083ED0B7A83ED237A9CED007A18610EF255
:102E0000FC7C0EF6FC7EDCED005A9EED006A196734
:102E100025EE275A66EEA76A65EEA75A26EE276AC0
:102E200027EE277A02F5405202F2FC7C02F6FC7291
:102E300083ED087A83ED207AD861D9679862C3F868
:102E4000881083ED065A83ED1E5AC3ED056AC3ED63
:102E50001D6AC3ED095AC3ED215A83ED0C6A9CED3E
:102E6000007AD2ED004A586327EE277A64EEA77AFB
:102E700083ED0E5A83ED246AC3F8941083ED265A2D
:102E800083ED0F7A1864C3ED115A83ED277AC3F8E6
:102E9000A010C3ED295AC3ED127AD86483ED146AE9
:102EA000C3ED2A7AC3F8AC1083ED2C6AC3ED156A22
:102EB000986583ED177AC3ED2D6AC3F8B81083EDDA
:102EC0002F7A10BD001F0020081F0020CDCCCC3D64
:102ED0007C680408001E0020000048420000884171
:102EE0002DE9F04F2DED0C8BABB003F079F9054BCC
:102EF0001B68C31A0F2B07D82BB0BDEC0C8BBDE899
:102F0000F08F00BFFC1D0020FFF7D0FCEE49EF4B17
:102F10000A78DFEDEF8A9FEDEF5ADFEDEF5ADFF829
:102F2000E8A303EB820080ED000AD3ED007AD3ED35
:102F3000016A93ED027ABAF8000077EEA87AB7EE4C
:102F4000006A77EEA67AD3ED036A77EE877A93ED7F
:102F5000047A77EEA67AD3ED056A77EE877A93ED59
:102F6000067A77EEA67AD3ED076A77EE877A93ED45
:102F7000087A77EEA67AD3ED096A77EE877A93ED31
:102F80000A7A77EEA67AD3ED0B6A77EE877A93ED1D
:102F90000C7A77EEA67AD3ED0D6A77EE877A93ED09
:102FA0000E7A77EEA67AD3ED0F6A77EE877A9FEDE9
:102FB000CB7A77EEA67ADFEDCA6A67EE877A9FED65
:102FC000C97AE7EE856A531C03F00F0336EE406AB8
:102FD000F0EE477AE6EE257A0B70C34BC3ED006A3C
:102FE000C24BC3ED007A00EB400303EB031303EB8A
:102FF000032300EB8303C3F38D0242EA83339BB2C6
:1030000040F6CC429342B0EE40BA40F2B282DFF8D2
:10301000FCB29FEDB08ADFF8F8829FEDB5AADFED34
:10302000B58A9FEDB59A01303BEE088AAAF80000F8
:10303000D94698F8003088ED018A002B00F02881ED
:10304000D8ED069AD8ED077AD8ED05AA98ED020AD0
:1030500098ED035AD8ED040A69EE8A6A27EE8A7A57
:103060002AEE8A6AFDEEE66ABDEEC77ABDEEC66A52
:1030700016EE902A17EE103A16EE100AC2F30B0560
:1030800002F5806103F58062C0F30B06C3F30B0405
:1030900000F58060C2F30B0209EB840309EB8202A6
:1030A00009EB860609EB8505C0F30B00D3ED003A6A
:1030B000D6ED004A95ED004A904BD2ED006A8B4A5E
:1030C000C1F30B0109EB800009EB8101D0ED005A3F
:1030D00091ED006A92ED001AF1EE631AB1EE442A06
:1030E000F1EE642A0AAA03F160040021B0EE083A66
:1030F000D3ED01BAD3ED00CA93ED027A68EE2BBA94
:1031000068EE2CCA23EEABCA28EE077AA6EEACCA4C
:103110000C33481C26EE07DA66EEABBAA2EE0CDAE8
:103120000832E1EEACBA24EE077A65EE8DCAA6EE5F
:103130000C7A24EE8DCAE2EEABCAA5EEABCA30EE35
:10314000077A75EE0CBA70EEACCAF4EEC3BAF1EEC3
:1031500010FA48BFF0EE08BA81EE2BCA48BFC1B2E0
:10316000A342F0EE68BA6CEE2CCA2CEE07CAB0EEA1
:10317000497AECEEA8BAACEE287AFDEEEBBABDEED9
:10318000C77A42ED01BA02ED027AB1D1082904BF33
:10319000002388F80030544B98ED096AD3ED005AAB
:1031A000D8ED0A6A98ED087A0C9A0D9B35EE655AAF
:1031B00079EE869A77EEA67A37EE2A7ADDE90A0169
:1031C00088ED035A88ED057AC8ED077AC8ED069AAE
:1031D00016461F468B468246FFF7D2FCDDE90E45B8
:1031E000394622462B46304603970296FFF7C8FC25
:1031F000DDE91067294632463B4620460595049492
:10320000FFF7BEFC5B46524639463046CDF804B067
:10321000CDF800A007970696FFF7B2FCDDE914454C
:10322000DDE912AB22462B4659465046FFF7A8FC73
:10323000DDE916672946204632463B460995089443
:10324000FFF79EFCDDE91845394622462B463046FD
:10325000FFF796FC5B46524629462046FFF790FC56
:10326000DDE900015B465246FFF78AFCDDE90823F1
:10327000DDE90201FFF784FCDDE904013B4632464B
:10328000FFF77EFCDDE906012B462246FFF778FCBE
:103290001B4B08F12C0898457FF4CBAE9FED197AB3
:1032A000F0EE087AEBEE077A80224021FDEEE77A15
:1032B000CDED007A9DF90040C4F18005C4F14006CF
:1032C0003346284626E000BF001F0020C01E002015
:1032D000000000009A99993ECDCC4C3F0000803D03
:1032E000295C0F3E666606400000002004000020B6
:1032F00054EF224400000042000080421C68040891
:10330000A027002000000442F41D00207C6804086F
:10331000081F0020FFF734FC2046334600224021DE
:10332000FFF72EFC2346284680220021FFF728FCC9
:10333000234620460022E44C1146FFF721FCD4ED41
:10334000007A9FEDE26ADFEDE26A9FEDE27AE24BFE
:10335000E24993ED003ADFEDE23AF8EE677A0AAA25
:1033600067EE867A9FEDDF6A67EEA67A67EE877A68
:10337000FDEEE77A17EE903A03F58060C3F30B0396
:1033800009EB8303D3ED004AC0F30B0009EB800384
:1033900093ED005AB1EE644A01F1C00391ED017A58
:1033A000D1ED027AD1ED005AC3EE076A0C31083232
:1033B0008B4224EEA77A65EE277AA5EE257AE4EE15
:1033C000257A27EE267A67EEA67AF0EE466AE7EED1
:1033D000866AF0EE637AE7EE067AFDEEE66AFDEEC7
:1033E000E77A42ED016A42ED027AD7D1DDE90C8934
:1033F0000B9B0A981F4642464B4639460646FFF746
:1034000039FCDDE91A2539462B46304692460197AC
:103410000096FFF72FFCDDE91C67294632463B4644
:103420005046CDF808A0FFF725FCDDE90EAB494674
:1034300052465B464046FFF71DFC3B463246494636
:103440004046FFF717FC39463046DDE91E67324635
:103450003B46FFF70FFCDDE91089594642464B46D3
:103460005046FFF707FC3B46324659465046FFF7A9
:1034700001FC39463046DDE9206732463B46FFF71E
:10348000F9FBDDE912AB494652465B464046FFF781
:10349000F1FB3B46324649464046FFF7EBFB3946D7
:1034A0003046DDE9226732463B46FFF7E3FBDDE9C4
:1034B0001489594642464B465046FFF7DBFB3B46D4
:1034C000324659465046FFF7D5FB39463046DDE9CE
:1034D000246732463B46FFF7CDFBDDE916AB494694
:1034E00052465B464046FFF7C5FB3B4632464946DF
:1034F0004046FFF7BFFBDDE92689394630464246A4
:103500004B46FFF7B7FBDDE91867594632463B46A5
:103510005046FFF7AFFB4B46424659465046FFF731
:10352000A9FB49464046DDE9288942464B46FFF75C
:10353000A1FBDDE9002339463046FFF79BFB4B46F4
:10354000424639463046FFF795FB029A2B464946DC
:103550004046FFF78FFBFFF767FA236801332360CC
:1035600002F03EFE604B18602BB0BDEC0C8BBDE84A
:10357000F08F00279FED5DAADFED569ADFF880817E
:10358000DFF88091DFF880B19FED599A3D46D8F879
:10359000003058495A1CA1FB02613224090904FB7E
:1035A00011222C2404FB03F3012119F8036003EB1F
:1035B0000904002E7FF42DAD09F80310C8F800208F
:1035C000FDF7C2F83EA3D3E90023FCF741FE07EE66
:1035D000905AF8EEE77A064667EE8A7A0F4617EEBB
:1035E000900AFDF7C3F802460B4630463946FCF711
:1035F0005FFFFDF733F907EE900A67EEA97AF1EE67
:10360000046AFDEEE77A84ED039A17EE903A03F52B
:103610008062C3F30B03C2F30B020BEB830393ED46
:10362000007AC4ED058A0BEB8203D3ED007AC4ED7A
:10363000068A67EEA67A27EE267AC4ED027A84ED32
:10364000047AC4ED078A03F079FB07EE900A9FED38
:103650002ADADFED2AAAF8EEE77ABFEE008A67EEF3
:103660008D7AB0EE00CAF0EE48CAE7EE8CCA03F0DD
:1036700065FB07EE900AF8EEE77AF0EE48BA67EEDF
:103680008D7A6CEEAACAE7EE8CBA03F057FB07EE10
:10369000900AF8EEE77A6BEEAABA67EE8D7A0135FA
:1036A000A7EE8C8A032DBAF80000C4ED08CA68EEB4
:1036B0002A7AC4ED09BAC4ED0A7A7FF468AFA8E4A7
:1036C0005839B4C876BE9F3FF81D00206F12033BE7
:1036D000DB0F494054EF224404000020001E00206C
:1036E0000000804200000042FC1D0020920A0640BB
:1036F000000020421F85EB51000000308FC2F53CD6
:10370000041F0020081F00207C680408FEE700BF9B
:10371000FEE700BFFEE700BFFEE700BFFEE700BF19
:10372000704700BF704700BF704700BF2F4A136843
:1037300023F0070343F0030310B51360136803F08D
:103740000703032BFAD12A492A4B0A6842F4404264
:103750000A601A6842F480321A601A689003FCD535
:1037600058682549254A01400A435A605A68244945
:1037700022F440325A605868224A01400A435A6093
:1037800019681C4A41F08071196013689901FCD5D1
:10379000174A53685B04FCD5164CA36823F0F0036A
:1037A000A360A36823F4E05343F48053A360A368A9
:1037B00023F46043A360A36823F0030343F00203F0
:1037C000A360A36803F00C03082BFAD10E4802F0A3
:1037D00083FA0F2002F0BAFC08B172B6FEE7D4F803
:1037E0008C3023F08073C4F88C3010BD003C024054
:1037F00000700040003802400080BFFF19304000D8
:103800000080BFF01930400400D8B80572B6FEE75A
:1038100002F0DABC014800F021BD00BFD82E002024
:1038200082B00C4B002100915A6C42F480425A64E1
:103830005A6C02F480420092009A01911A6C42F094
:1038400080521A641B6C03F080530193019B02B0F9
:10385000704700BF00380240034AD2F8883043F472
:103860007003C2F88830704700ED00E008B51849D1
:103870001848002202F0CCFC70B91749154802F034
:10388000DBFC88B91549134803F022FAA0B91148A6
:1038900002F0EEFCB8B908BDFFF7B8FF0E490D48BD
:1038A00002F0CAFC0028EDD0FFF7B0FF0B49094831
:1038B00003F00EFA0028EAD0FFF7A8FF054802F04F
:1038C000D7FC0028E7D0BDE80840FFF79FBF00BF46
:1038D00040000020A0270020E80000205C0000201D
:1038E000122301480B8070472C000020042301485C
:1038F0000B8070472800002010B5044C04480A468D
:10390000214603F0D5F8204610BD00BF7C2A0020D8
:10391000D07D000810B5044C04480A46214603F047
:10392000C7F8204610BD00BF7C2A0020E87D0008B3
:1039300010B5044C04480A46214603F0B9F8204665
:1039400010BD00BF7C2A0020F87D000810B5044C93
:1039500004480A46214603F0ABF8204610BD00BFDC
:103960007C2A0020087E0008514AD2F8103AD2F88A
:10397000180A4FF01A0C1B18A1F800C001D14D48CD
:103980007047D2F8141A4B4A180FB3F1204F4FF07A
:10399000000C2CBF3730303082F803C0C3F3036C07
:1039A000BCF1090F907060464FF0000C8CBF3730AF
:1039B000303082F805C0C3F3035CBCF1090F10710D
:1039C00060464FF0000C8CBF3730303082F807C0B3
:1039D000C3F3034CBCF1090F907160464FF0000C2B
:1039E0008CBF3730303082F809C0C3F3033CBCF1E0
:1039F000090F107260464FF0000C8CBF373030302A
:103A000082F80BC0C3F3032CBCF1090F907260461F
:103A10004FF0000C8CBF3730303082F80DC0C3F34C
:103A2000031CBCF1090F107360468CBF3730303077
:103A3000907303F00F000346092894BF30333733E7
:103A40000020B1F1204F13744FEA11732CBF3733AC
:103A500030335074C1F303600928937403468CBF5C
:103A600037333033C1F3035009284FF0000C13757E
:103A700003468CBF37333033C1F3034082F80FC0A5
:103A80004FF0000C092882F813C093754FF0000C1A
:103A9000034682F815C098BF30334FF0000C88BF42
:103AA00037330021034882F817C0137651767047E8
:103AB0000070FF1F0C000020002070472DE9F04728
:103AC000234F0C4663B2002B15DD8046013C18F8ED
:103AD000015B05F00F05E4B27E5D06B32B1F032BDF
:103AE00012D84378F02B1CD0DFF870A0BAF8009001
:103AF000B9F5FA7F29D9174803F0DAF8003818BF6A
:103B000001204042BDE8F087083D062D02D840461E
:103B1000FCF738FFA41B08EB0600E4B2D2E74046EE
:103B2000D0E70D48DFF834A04FF000094146324697
:103B300003F0BDFA06EB090189B2042DAAF80010C2
:103B4000E8D00548FCF758FFE4E703484844EDE7B0
:103B50007CA80408A0270020802C00207C2C0020BA
:103B60000020704730B5036889B00024B3F1A04F3E
:103B7000CDE90244CDE90444069401D009B030BD3A
:103B8000174D00942B6B43F001032B632B6B03F059
:103B9000010300934FF4C0520223CDE902230098A1
:103BA000104802A903220A23CDE9052302F0A0F858
:103BB0006B6B43F080036B6301946B6C43F4804345
:103BC0006B646B6C03F480432246214601934320CF
:103BD000019B02F057FA432002F090FA09B030BD81
:103BE000003802400000024000F29C41D0F8E0049E
:103BF00002F052BB01EBC10300EB8303D0F8E004F9
:103C0000D3F8602202F078BB01EBC10300EB830321
:103C1000D0F8E0041A6A02F0A9BB00BFD0F8E004B3
:103C200002F04ABC10B5C379022B044601D0FFF75D
:103C3000EDFDD4F8E004012102F020FCD4F8E0040A
:103C4000BDE8104002F0ECBB10B50446D0F8E0042B
:103C500002F018FC2268D2F8003E43F00103C2F8DB
:103C6000003EE37A23B1034A136943F0060313616C
:103C700010BD00BF00ED00E0D0F8E00402F010BC81
:103C8000D0F8E00402F03EBCD0F8E00402F024BC1E
:103C9000D0F8E00402F04CBCD0F8E00402F04ABCDA
:103CA00002780AB10020704708B5154B4FF0A041CB
:103CB000C3F8E004C0F8C8324FF400704FF0040CB1
:103CC0001960D8800221184683F804C0C3F809108F
:103CD000DA8100F097F878B98021094801F00EFAEE
:103CE00040220021064801F087F980220121044882
:103CF00001F082F9002008BDFFF788FDECE700BF66
:103D0000D82E002008B5D0F8C80200F085FA18B106
:103D100002280CBF0120032008BD00BF944608B54F
:103D20001A46D0F8C802634601F02AF818B10228F2
:103D30000CBF0120032008BD08B5D0F8C80201F06F
:103D40005DF818B102280CBF0120032008BD00BF98
:103D500008B5D0F8C80201F0D5F818B102280CBF98
:103D60000120032008BD00BF08B5D0F8C80201F04B
:103D70000BF918B102280CBF0120032008BD00BFB9
:103D80000A06D0F8C83206D401EBC10103EB810367
:103D900093F85602704701F07F0101EBC10103EB7C
:103DA0008103987D704700BF08B5D0F8C80200F0C5
:103DB000D3FF18B102280CBF0120032008BD00BFAB
:103DC00008B5D0F8C80201F079F818B102280CBF84
:103DD0000120032008BD00BF08B5D0F8C80201F0DB
:103DE00041F818B102280CBF0120032008BD00BF14
:103DF000D0F8C80201F058B800487047802E002063
:103E0000704700BF30B583B008B390F895340568AB
:103E1000044603F0FF02002B00F0EF812846032345
:103E2000B5F1A04F84F8953404BF0023A37101F0CD
:103E300071FA237C8DF80030251D95E80E0020686E
:103E400001F062F9014630B1022384F8953401256E
:103E5000284603B030BD206801F064FA0028F3D191
:103E60002279002A00F0B3814FF48073012AC4E95B
:103E70000700A382E0852076606200F0C48140F2F2
:103E800001132387022A4FF00103C4E91000A4F8AC
:103E9000523084F83C00A06400F0E2804FF481735B
:103EA000A4F85C30032A4FF00203C4E91900A4F817
:103EB000763084F86000E06600F0D28040F20313B0
:103EC000A4F88030042A4FF00303C4E92200A4F8C8
:103ED0009A3084F88400C4F8900000F0C1804FF458
:103EE0008273A4F8A430052A4FF00403C4E92B0020
:103EF000A4F8BE3084F8A800C4F8B40000F0B08084
:103F000040F20513A4F8C830062A4FF00503C4E9AF
:103F10003400A4F8E23084F8CC00C4F8D80000F0F3
:103F20009F804FF48373A4F8EC30072A4FF0060308
:103F3000C4E93D00A4F8063184F8F000C4F8FC00A0
:103F400000F08E8040F207110023A4F81011082A17
:103F50004FF00701C4E94633A4F82A1184F814315C
:103F6000C4F820317CD04FF48471A4F83411092AAC
:103F70004FF00801C4E94F33A4F84E1184F83831EA
:103F8000C4F844316CD040F20911A4F858110A2A3F
:103F90004FF00901C4E95833A4F8721184F85C3178
:103FA000C4F868315CD04FF48571A4F87C110B2AF9
:103FB0004FF00A01C4E96133A4F8961184F8803106
:103FC000C4F88C314CD040F20B11A4F8A0110C2A8B
:103FD0004FF00B01C4E96A33A4F8BA1184F8A43194
:103FE000C4F8B0313CD04FF48671A4F8C4110D2A46
:103FF0004FF00C01C4E97333A4F8DE1184F8C83122
:10400000C4F8D4312CD040F20D11A4F8E8110E2AD6
:104010004FF00D01C4E97C33A4F8021284F8EC31AE
:10402000C4F8F8311CD04FF48771A4F80C120F2A91
:104030004FF00E01C4E98533A4F8261284F810323B
:10404000C4F81C320CD040F20F11C4E98E33A4F82E
:1040500030120F21A4F84A1284F83432C4F84032E6
:1040600000230121022AC4E99733C4E9A033A4F84C
:10407000543284F85832C4F86432A4F8781284F8C0
:104080007C32C4F8883200F0A2800221032AC4E9FD
:10409000A933A4F89C1284F8A032C4F8AC3200F022
:1040A00096800321042AC4E9B233A4F8C01284F82C
:1040B000C432C4F8D03200F08A800421052AC4E951
:1040C000BB33A4F8E41284F8E832C4F8F4327ED0AA
:1040D0000521062AC4E9C433A4F8081384F80C3374
:1040E000C4F8183373D00621072AC4E9CD33A4F8E5
:1040F0002C1384F83033C4F83C3368D00721082AE5
:10410000C4E9D633A4F8501384F85433C4F86033A8
:104110005DD00821092AC4E9DF33A4F8741384F8B8
:104120007833C4F8843352D009210A2AC4E9E83329
:10413000A4F8981384F89C33C4F8A83347D00A2114
:104140000B2AC4E9F133A4F8BC1384F8C033C4F8D3
:10415000CC333CD00B210C2AC4E9FA33A4F8E01389
:1041600084F8E433C4F8F03331D00C210D2AA4F8DC
:10417000041484F80834C4F80C34C4F81034C4F8B7
:10418000143424D00D210E2AA4F8281484F82C34D9
:10419000C4F83034C4F83434C4F8383417D00E219D
:1041A0000F2AA4F84C1484F85034C4F85434C4F8DA
:1041B0005834C4F85C340AD00F22A4F8702484F870
:1041C0007434C4F87834C4F87C34C4F88034207C67
:1041D00095E80E008DF80000206801F0DBF8054638
:1041E00000287FF431AE01236074206884F8953490
:1041F00001F0F8FC284603B030BD80F89424FFF7A6
:10420000B1FC20680BE6C4E99700A4F8540284F8D6
:104210005802C4F86402DAE710B590F89434012B20
:104220000446006817D0012384F89434C3685B0601
:1042300002D5637B012B09D001F064F8206801F0FE
:10424000C1FC002384F89434184610BD836B43F4FA
:1042500080338363F0E7022010BD00BF2DE9F04FEB
:10426000066889B00446304601F0FAFC10B109B086
:10427000BDE8F08F0546206801F0C4FC0028F6D0A8
:10428000D6F808382068C3F30D23C4F8D43406F5F3
:104290000063039301F0B6FC10F0020F20681EBF0C
:1042A000436903F00203436101F0ACFC10F0100F0E
:1042B000206814D0836923F010038361376A07F400
:1042C000F013B3F5802F07F00F0800F0B783B3F5B4
:1042D000402F00F05683836943F01003836101F09F
:1042E00091FC10F4002F206840F0B18201F08AFCAC
:1042F000470300F11082206801F084FC0028C0F21E
:104300008281206801F07EFC030500F13D81206878
:1043100001F078FCC00400F1A081206801F072FC7B
:1043200010F4005F206840F0818101F06BFC010710
:1043300000F1E881206801F065FC020671D5B369DF
:1043400023F08003B3612379012B6AD994F87B228F
:10435000012A00F0E083022B63D994F89F22012AFE
:1043600000F0F483032B5CD994F8C322012A00F0F7
:104370000183042B55D994F8E722012A00F0148315
:10438000052B4ED994F80B23012A00F01A84062B32
:1043900047D994F82F23012A00F02784072B40D90E
:1043A00094F85323012A00F03984082B39D994F862
:1043B0007723012A00F04684092B32D994F89B23F5
:1043C000012A00F053840A2B2BD994F8BF23012A29
:1043D00000F060840B2B24D994F8E323012A00F029
:1043E0006D840C2B1DD994F80724012A00F07284E7
:1043F0000D2B16D994F82B24012A00F08E840E2B55
:104400000FD994F84F24012A00F095840F2B08D976
:1044100094F87334012B04D1206804F58E6101F007
:10442000E1FA206801F0EEFBC30240F1AB80237992
:10443000012B40F2898094F83C20D6F82019012AFB
:1044400000F06182022B7FD994F86020D6F84019E1
:10445000012A00F06B82032B76D994F88420D6F8D9
:104460006019012A00F06E82042B6DD994F8A820FF
:10447000D6F88019012A00F07182052B64D994F8CE
:10448000CC20D6F8A019012A00F03983062B5BD97D
:1044900094F8F020D6F8C019012A00F04B83072BBE
:1044A00052D994F81421D6F8E019012A00F0558366
:1044B000082B49D994F83821D6F8001A012A00F0BF
:1044C0005883092B40D994F85C21D6F8201A012A88
:1044D00000F06B830A2B37D994F88021D6F8401A64
:1044E000012A00F076830B2B2ED994F8A421D6F85C
:1044F000601A012A00F086830C2B25D994F8C82174
:10450000D6F8801A012A00F091830D2B1CD994F85B
:10451000EC21D6F8A01A012A00F09C830E2B13D9A7
:1045200094F81022D6F8C01A012A00F0A7830F2BA6
:104530000AD994F83422D6F8E01A012A00F0B2839E
:10454000102B01D9D6F8003B2068436903F480138F
:10455000436101F057FB870221D4206801F052FB30
:10456000400000F1C680206801F04CFB41077FF558
:104570007EAE23685D686A0700F181825A682A432B
:104580005A6074E62068E4E7039B9B68DF0700F14C
:1045900072822068436903F400634361B8E694F8CB
:1045A00004C0BCF1010F28D906F53262234601216F
:1045B00006E00131614502F1200203F124031CD021
:1045C00093F87C0215680128F3D1002DF1DAD4F8B4
:1045D000D47405F4803507F00107BD42E9D183F8B2
:1045E0007B02B06940F08000B06170690506E0D4DC
:1045F000039A536843F4007353602068436903F4DB
:1046000000134361AAE7039A536823F00103536040
:1046100094F8CC34012B00F082812046FFF72CFB6C
:104620002068436903F0004343616BE601F01CFB23
:10463000206801F003F8E071256801F053FBE2798E
:104640000146284600F0E4FD2046FFF7EBFA20681B
:10465000436903F40053436167E6039A2068536893
:1046600023F001035360102100F0C0FF2079D8B17E
:1046700006F510634FF67F3199601A6822F4001234
:104680001A60C3F80812D3F8002222F40012C3F80B
:104690000022D3F80022013542F000628542C3F8BF
:1046A000002203F12003E7D1039AD36943F00113F9
:1046B000D361E37B002B40F01B81536943F400532B
:1046C00043F02B035361136943F00B031361D6F8D6
:1046D0000038206823F4FE63C6F80038A17904F29C
:1046E0009C4201F0D1FA2068436903F4805343618E
:1046F00014E62046FFF7CCFA2068436903F08043B4
:10470000436131E72046FFF789FA2068436903F0E7
:10471000080343610FE6206801F080FA81462068B3
:10472000B9F1000F3FF4E8ADCDE9046506F5106777
:10473000A0464FF0000A064609E05FEA59090AF16F
:10474000010A08F1240807F1200700F0378119F069
:10475000010FF2D05FFA8AFB3046594601F070FA39
:10476000C207054612D503980121436B0AF00F02D8
:1047700001FA02F223EA02034363B960A179012935
:1047800000F0828159462046FFF73EFA2B0744BFCE
:104790000823BB60EE0644BF1023BB60680644BF1D
:1047A0004023BB60A90700F13D812A062668C4D5D5
:1047B000D8E90953AB42C0D806F51061D8F81C00FF
:1047C000079601EB4A11A5EB030C84458A6928BFC3
:1047D00084461FFA82FE0CF1030CBEEB9C0FC0F066
:1047E0008A8106970F4621E0ED1AD8F81C30D8F8D8
:1047F00020109D4228BF1D46A37900935A46ABB2B4
:10480000304601F039F9D8F82030BA692B44C8F89D
:104810002030D8F8283092B22B440335B2EB950FF4
:10482000C8F82830C0F06381D8F824509D42DBD806
:10483000069F2668079B0AF00F0503F50061012219
:10484000D3F83438AA4023EA02034B6375E701F03A
:10485000DDF907462068002F3FF448AD049506F5C2
:104860003068A3464FF0000A254608E07F080AF1A9
:10487000010A08F120080BF1240B00F09C80FC07D2
:10488000F4D55FFA8AF4214601F0D0F910F0010F57
:10489000814640F0A88019F0080F40F0938019F08D
:1048A000100F1CBF1022C8F8082019F0020F0FD0FB
:1048B0007269110604D5039B5A6842F480625A60FB
:1048C0009BF85722012A00F02D810223C8F80830F6
:1048D00019F0200F1CBF2023C8F8083019F4005F1E
:1048E00018BF4FF40053286818BFC8F80830BDE758
:1048F000D2F8843043F00B03C2F88430536C43F099
:104900000B035364E3E60029BFF69CAD206884F8EE
:104910003B2004F1380101F065F8237992E500218C
:1049200084F8CC14204600F0EDFB79E60029BFF6B0
:1049300092AD206884F85F2004F15C0101F052F828
:10494000237988E50029BFF68FAD206884F883209D
:1049500004F1800101F046F8237985E50029BFF6CE
:104960008CAD206884F8A72004F1A40101F03AF886
:10497000237982E5206804F5307101F033F823795A
:10498000F7E4082204F29C41304608EBC80801F025
:1049900089F804EB8802C7F30A13D2F8681220687A
:1049A0000B44C2F8683296E4206804F5397101F0CE
:1049B00019F82379E4E42C46049D97E43046059DDC
:1049C000049E99E429680822C8F80820086C01F5BB
:1049D0003062BE4902EB4A128842936867D8284683
:1049E000FFF702F95BE728680122C8F80820A979D7
:1049F000D0F840E000F5306202EB4A1201299368DA
:104A000067D0B3498E4500F0C080BAF1000F04D1E1
:104A1000D5F86422002A00F0888121462846FFF755
:104A2000E9F838E70498514600F0E0FD98F81730AF
:104A3000012B00F0B2800223BB60B6E647F6F073AC
:104A40001F423FF448AC08EBC80804EB8808C7F3E2
:104A50000A12D8F860123046174601F023F8D8F849
:104A6000603220683B44C8F86032D8F868323B4472
:104A7000C8F868322FE42046FFF7E6F889E52046BB
:104A8000FFF70AF9236879E5D8E907231344C8F842
:104A90002030BAF1000F7FF475AE636A002B7FF40B
:104AA00071AE206804F29C4201F0EEF86AE6180448
:104AB00044BF4FF4004191602846FFF795F8A9796B
:104AC00001297FF4ECAE286805F29C4201F0DCF885
:104AD000E5E6190740F191807C498E457FF6DBAE13
:104AE00018047FF5D8AE4FF400419160D3E6069FDD
:104AF000D8F8245026689D423FF61FAE9AE600295A
:104B0000BFF6C4AC206884F8CB2004F1C80100F0E3
:104B100069FF2379BAE4206804F51E7100F062FF92
:104B2000237918E4002221468BF857222846FFF704
:104B3000A7F8CAE60029BFF6B2AC206884F8EF20D7
:104B400004F1EC0100F04EFF2379A8E4206804F59D
:104B5000277100F047FF237904E40029BFF6A8ACD1
:104B6000206884F8132104F5887100F03BFF237955
:104B70009EE40029BFF6A5AC206884F8372104F52F
:104B80009A7100F02FFF23799BE41904ABD49B06A4
:104B90007FF543AF202191603FE7002388F817306D
:104BA00059462046FFF770F845E70029BFF692AC5A
:104BB000206884F85B2104F5AC7100F013FF2379C1
:104BC00088E4206804F5427100F00CFF2379FFF7B8
:104BD000DEBB0029BFF687AC206884F87F2104F58E
:104BE000BE7100F0FFFE23797DE4206804F54B716F
:104BF00000F0F8FE2379FFF7D1BB990672D520218A
:104C0000916048E60029BFF677AC206884F8A321BC
:104C100004F5D07100F0E6FE23796DE4206804F518
:104C2000547100F0DFFE2379FFF7BFBB0029BFF608
:104C30006CAC206884F8C72104F5E27100F0D2FE64
:104C4000237962E4206804F55D7100F0CBFE2379DE
:104C5000FFF7B2BB0029BFF661AC206884F8EB21F6
:104C600004F5F47100F0BEFE237957E4206804F5E2
:104C7000667100F0B7FE2379FFF7A5BB0029BFF6E8
:104C800056AC206884F80F2204F5037100F0AAFEE8
:104C900023794CE4206804F56F7100F0A3FE2379BA
:104CA000FFF798BB0029BFF64BAC206884F833228D
:104CB00004F50C7100F096FE237941E4206804F5B8
:104CC000787100F08FFE2379FFF78BBB0A30544FC9
:104CD0000A31544F206804F2044100F083FE237926
:104CE000FFF786BB1B498E4502D91B043FF5FBAE7F
:104CF0001169DBF87422C1F31201521ACBF8682251
:104D0000BAF1000F7FF489AED5F86412D9B1D5F8A5
:104D100060121144C5F860127FE6206804F58561D1
:104D200000F060FE2379FFF76ABB05F29C42514612
:104D300000F0AAFF71E6206804F24C4100F052FE38
:104D40002379FFF763BB05F29C42012100F09CFF31
:104D500063E600BF0A30544F90F89424012A0DD026
:104D600010B504460122006884F89424617400F0B0
:104D700019FF002384F89434184610BD02207047B0
:104D800010B501F00F0E0EEBCE0C090604464FEAEB
:104D90008C0C25D40CF5157101440EEBCE0004EB00
:104DA00080004FF0000C80F855C28A604A7881F884
:104DB00000E00B710AB1A1F81AE0022B04BF002336
:104DC0004B7194F89434012B16D0012384F8943459
:104DD000206800F03FFC002384F89434184610BD8E
:104DE0000CF1140101440EEBCE0004EB80004FF0F7
:104DF000010C80F815C0D8E7022010BD01F00F03A8
:104E000001F00F0210B503EBC3030446090602EBE1
:104E1000C2004FEA830304EB800016D403F5157338
:104E2000E1184FF0000C80F855C20A7094F89434E1
:104E3000012B15D0012384F89434206800F052FC33
:104E4000002384F89434184610BD1433E1184FF051
:104E5000010C80F815C00A7094F89434012BE9D144
:104E6000022010BD10B501F00F0E0EEBCE0C00EBC2
:104E70008C0C1446CCF8643200238CF854E2CCF845
:104E80006022CCF868328CF855328279242101FBFB
:104E90000E01012A01F5157108BFCCF870420068B7
:104EA00000F082FC002010BD01F00F0101EBC101F8
:104EB00000EB8100D0F86802704700BF10B501F028
:104EC0000F0E0EEBCE0C00EB8C0C1446CCF82430FD
:104ED0000023CCF8283001238CF814E0CCF82020F3
:104EE0008CF815308279242101FB0E019A4201F1E0
:104EF000140108BFCCF83040006800F055FC0020D9
:104F000010BD00BF38B5037901F00F05AB4232D3B5
:104F10000B0604461CD401EBC103242202FB010151
:104F200000EB830301F51571002283F8552201235C
:104F30008B700D7094F894249A421AD0206884F8EB
:104F4000943400F0D5FDC5B1002084F8940438BD38
:104F500005EBC503242101FB050100EB83030122BE
:104F600014315A7501238B700D7094F894249A4271
:104F7000E4D1022038BD012038BDA179206804F2B7
:104F80009C4200F081FEDFE738B5037901F00F02A3
:104F900093422ED3044602EBC20302EBC200090681
:104FA0004FEA830304EB800016D403F51573E11870
:104FB000002580F8555200258D700A7094F89434BD
:104FC000012B14D00123206884F8943400F0BEFD36
:104FD00084F89454284638BD1433E11801254575EA
:104FE00000258D700A7094F89434012BEAD10220C8
:104FF00038BD012038BD00BF00681204436A19B9EA
:10500000134383620020704730B4846A013903EB94
:1050100014436BD0D0F80441012903EB144365D04D
:10502000D0F80841022903EB14435FD0D0F80C41BB
:10503000032903EB144359D0D0F81041042903EBA2
:10504000144353D0D0F81441052903EB14434DD039
:10505000D0F81841062903EB144347D0D0F81C417F
:10506000072903EB144341D0D0F82041082903EB72
:1050700014433BD0D0F82441092903EB144335D025
:10508000D0F828410A2903EB14432FD0D0F82C4143
:105090000B2903EB144329D0D0F830410C2903EB42
:1050A000144323D0D0F834410D2903EB14431DD011
:1050B000D0F838410E2903EB144317D0D0F83C4107
:1050C0000F2903EB144311D0D0F84041102903EB12
:1050D00014430BD0102404F1400C00EB8C0C013471
:1050E000DCF804508C4203EB1543F4D3403100EB61
:1050F00081011A43002030BC4A60704703680020D9
:1051000059627047704700BF84B082B00DF10C0C3B
:105110008CE80E009DF81120012A03462ED1826BE7
:105120009DF8181022F480328263C26822F484024F
:1051300022F04002C260C268012922F44012C2601B
:1051400061D00022009202E01A69002A30DB009A46
:1051500001320092009AB2F1706FF5D903209DF8E8
:105160000E20012A07D19A6842F006029A609A68D6
:1051700042F020029A6002B004B07047C268002179
:1051800042F04002C260019102E01A69002A27DB66
:10519000019A01320192019AB2F1706FF5D90320A0
:1051A0009DF81520BAB99A6B42F480329A63D6E71B
:1051B000002200921A6942F001021A6103E01869A4
:1051C00010F00100CBD0009A01320092009AB2F1A7
:1051D000706FF4D9C2E79A6B22F480329A63BEE70B
:1051E000002201921A6942F001021A6103E0186973
:1051F00010F00100D4D0019A01320192019AB2F16B
:10520000706FF4D9CBE7C26842F48012C26098E7AD
:10521000022A03460AD04FF41051DA6822F4705281
:10522000DA60DA680A430020DA607047264A2748C5
:105230000A44824232D9264A26480A44824230D958
:105240002548A1F57402A2F5105282422CD92348B8
:10525000A1F18372A2F5E742824228D3204A214875
:105260000A44824226D9204A20480A44824224D352
:105270001F4A20480A448242CDD31F48A1F1B77289
:10528000A2F5585282421BD31C4A1D480A4482424E
:105290002CBF4FF4C0514FF4E051BEE74FF47051B2
:1052A000BBE74FF46051B8E74FF45051B5E74FF406
:1052B0004051B2E74FF43051AFE74FF42051ACE723
:1052C0004FF40051A9E700BF405327FFFF340C0003
:1052D000401E1BFF3F420F007F4F120020D61300DD
:1052E00060B6E5FE5FE3160000D3CEFE40771B00FC
:1052F000C05BB3FEC091210020753800E05459FE18
:10530000E09C4100034600209A6842F001029A6046
:10531000704700BF034600209A6822F001029A609D
:10532000704700BF38B5C368012923F0C043054664
:10533000C36018D0A9B9C36843F080430C46C3606A
:1053400001E0C82C0DD00A2000F050FF6B69DB078C
:1053500004F10A04F5D4A4F1C800B0FA80F04009C1
:1053600038BD012038BDC36843F000530024C3603A
:1053700001E0C82CF5D00A2000F038FF6B69DA078D
:1053800004F10A04F5D5A4F1C800B0FA80F0400990
:10539000E6E700BF84B0F0B583B009AC84E80E0046
:1053A0009DF82E409DF824500022C0F804210346A9
:1053B000C0F8082100F5006EC0F80C21C0F81021DB
:1053C000C0F81421C0F81821C0F81C21C0F8202111
:1053D000C0F82421C0F82821C0F82C21C0F83021C1
:1053E000C0F83421C0F83821C0F83C21002C40F02E
:1053F000B880DEF8042042F00202CEF80420826B6E
:1054000042F400128263826B22F400228263826B78
:1054100022F4802282630022C3F8002E9DF8292006
:10542000012A00F0AE80D3F8002842F00302C3F84E
:1054300000280022009203E01A69002AC0F2BA8014
:10544000009A01320092009AB2F1706FF4D90120F3
:105450000022019203E01A69002AC0F29A80019AA0
:1054600001320192019AB2F1706FF4D9012000214A
:10547000CEF81010CEF81410CEF81C1025B3D3F8C7
:105480000069002E03F5106218DB002616608C46BA
:1054900000274FF67F360CF101018D4217619660AF
:1054A00002F120023AD0D2F800C0BCF1000FECDAD1
:1054B0004FF0904CC2F800C08C46ECE74FF000660D
:1054C000C3F800698C46E3E7DEF8102022F480720E
:1054D000CEF8102000219DF8262099616FF08041C0
:1054E00059611AB99A6942F010029A6199693E4A63
:1054F0000A439DF82A109A6119B19A6942F008028C
:105500009A61012C05D19A6942F0804242F004026E
:105510009A6103B0BDE8F04004B07047D3F8001BB7
:10552000002903F5306216DB0025002111602946B1
:1055300000274FF67F368C45176101F10105966013
:1055400002F12002C0D011680029EEDA4FF090413C
:1055500011602946EFE74FF00061C3F8001B0021FE
:10556000E6E7826B22F400128263826B42F400222F
:1055700082630022C3F8002E9DF82920012A7FF4BF
:1055800052AF9DF8272042BBD3F80028C3F800286B
:105590004FE70022019210221A6103E01A69D20635
:1055A0007FF565AF019A01320192019AB2F1706FF5
:1055B000F4D95BE7002200924FF484621A6104E0A0
:1055C000186910F020003FF443AF009A01320092B6
:1055D000009AB2F1706FF3D939E7D3F8002842F09E
:1055E0000102C3F8002824E700383C8082B0002381
:1055F000019302E00369002B09DB019B0133019356
:10560000019BB3F1706FF5D9032002B07047890197
:10561000002341F020010193016103E0036913F0CD
:10562000200307D0019B01330193019BB3F1706FFD
:10563000F4D9E9E7184602B0704700BFD0F808383F
:1056400013F0060004D013F0020F14BF02200F2045
:10565000704700BF10B50A78012302F00F0E03FA5D
:105660000EF391F801E0BEF1010F00F5006C00EBC4
:1056700042101AD0DCF81C2042EA0343CCF81C305C
:10568000D0F8003B1B040ED48B68D0F8004B0A798D
:10569000C3F30A03234343EA824343F0805343F4B2
:1056A0000043C0F8003B002010BDDCF81C40234341
:1056B000CCF81C30D0F800391C04F4D48B68D0F836
:1056C00000490979C3F30A03234343EA814343EAC8
:1056D000825343F0805343F40043C0F80039002064
:1056E00010BD00BF10B40A784978012900EB4213BD
:1056F0002CD0D3F8001B00291BDBD0F83C484FF41A
:10570000803102F00F0201FA02F224EA0204C0F82A
:105710003C48D0F81C48224924EA0202C0F81C2860
:10572000D3F8002B5DF8044B11400020C3F8001B98
:105730007047D3F8001B41F00061C3F8001BD3F899
:10574000001B41F08041C3F8001BD6E7D3F80019D5
:1057500000290BDAD3F8001941F00061C3F80019F1
:10576000D3F8001941F08041C3F80019D0F83C1873
:1057700002F00F040122A24021EA0201C0F83C1805
:10578000D0F81C48074924EA0202C0F81C28D3F8C4
:1057900000295DF8044B11400020C3F80019704740
:1057A0000078F3EF007833EC2DE9F0434C780E7875
:1057B0000D6991F804E0012C00EB46135BD0D3F89F
:1057C000104B6FF31204C3F8104BD3F8104B6FF368
:1057D000DC44C3F8104B03F5306C8C6856BB05B144
:1057E0000C610C62DCF81050C4F312042C43CCF8AA
:1057F0001040DCF81040012A44F40024CCF810409A
:1058000033D0BEF1010F0CD1D0F8082812F4807FFC
:10581000D3F8002B0CBF42F0005242F08052C3F884
:10582000002BD3F8002B42F00442C3F8002B0020D9
:10583000BDE8F083002DD5D0694E2544013DB5FB70
:10584000F4F5ADB205FB04F406EAC545DCF81060DA
:105850000C623543CCF81050DCF81050C4F312043D
:105860002C43012ACCF81040CBD1CA68002AC8D0FA
:10587000CCF81420C5E703F51064276995B36FF3DE
:10588000120727612769D1F808906FF3DC47276179
:10589000002E5FD12769A94547F400273CBFC1F816
:1058A00010904D462761D4F810C0C5F3120747EA9F
:1058B0000C07BEF1010F27616AD0012A00F08A802F
:1058C000D3F8002942F00442C3F80029002DAED0DD
:1058D000D0F8342806F00F060123B3401343C0F874
:1058E0003438A4E76FF3DC472761276947F40027C2
:1058F00027612769012A6FF31207276139D0D3F88E
:105900000049BEF1010F44F00444C3F800498ED1B0
:10591000D0F8084814F4807FD3F800490CBF44F055
:10592000005444F08054C3F80049002A7FF47FAF4C
:10593000ADB20335AD083FF47AAFCB6800EB063665
:1059400006F5805603EB850153F8042B326099422B
:10595000FAD16CE7224FD4F8108009EB050C0CF15A
:10596000FF3CBCFBF9FC07EACC4747EA0807276184
:1059700099E7CA6902B16261BEF1010F1CD0D3F888
:10598000002942F00442C3F800290020BDE8F0835A
:10599000276927F0C04727612769012A47F0005788
:1059A000276106D0D3F8004944F00444C3F8004905
:1059B000AEE7CA6902B16261D0F8082812F4807FAC
:1059C000D3F800290CBF42F0005242F08052C3F8D5
:1059D0000029D4E7CA69002AD1D06261CFE700BFAD
:1059E0000000F81F10B44A780B7883B00021012A18
:1059F00001914FEA431323D000F53060C218C1581B
:105A0000002904DB002003B05DF8044B7047C45844
:105A100044F00064C450C45844F08044C45042F27E
:105A2000107102E01368002BECDA019B0133019343
:105A3000019B8B42F6D9012003B05DF8044B7047FF
:105A400000F51060C218C1580029DBDAC45844F0D0
:105A50000064C450C45844F08044C45042F21071F1
:105A600002E01368002BCDDA019B01330193019B07
:105A70008B42F6D9DFE700BF10B49DF8044064B94B
:105A800003339B0809D0013200EB023001EB8303A2
:105A900051F8042B02608B42FAD100205DF8044BD0
:105AA000704700BF70B55FEA920E054602F003062C
:105AB0001CD000F580548C460023013322684CF83A
:105AC000042B9E45F9D101EB8E0076B105F580558A
:105AD000012E2B68037007D0022E4FEA132218BF45
